BL51 BANKED LINKER/LOCATER V6.22                                                        03/28/2021  16:14:10  PAGE 1


BL51 BANKED LINKER/LOCATER V6.22, INVOKED BY:
D:\KEIL_V5\C51\BIN\BL51.EXE .\Objects\STARTUP.obj, .\Objects\main.obj, .\Objects\eeprom.obj, .\Objects\fuzzy.obj TO .\Ob
>> jects\Clock PRINT (.\Listings\Clock.m51) RAMSIZE (256)


MEMORY MODEL: COMPACT WITH FLOATING POINT ARITHMETIC


INPUT MODULES INCLUDED:
  .\Objects\STARTUP.obj (?C_STARTUP)
  .\Objects\main.obj (MAIN)
  .\Objects\eeprom.obj (EEPROM)
  .\Objects\fuzzy.obj (FUZZY)
  D:\KEIL_V5\C51\LIB\C51FPC.LIB (?C?FPADD)
  D:\KEIL_V5\C51\LIB\C51FPC.LIB (?C?FPMUL)
  D:\KEIL_V5\C51\LIB\C51FPC.LIB (?C?FPDIV)
  D:\KEIL_V5\C51\LIB\C51FPC.LIB (?C?FPCMP)
  D:\KEIL_V5\C51\LIB\C51FPC.LIB (?C?FPNEG)
  D:\KEIL_V5\C51\LIB\C51FPC.LIB (?C?FCAST)
  D:\KEIL_V5\C51\LIB\C51FPC.LIB (?C?CASTF)
  D:\KEIL_V5\C51\LIB\C51FPC.LIB (PRINTF)
  D:\KEIL_V5\C51\LIB\C51FPC.LIB (FABS)
  D:\KEIL_V5\C51\LIB\C51FPC.LIB (?C?FPGETOPN)
  D:\KEIL_V5\C51\LIB\C51FPC.LIB (?C?FPROUND)
  D:\KEIL_V5\C51\LIB\C51FPC.LIB (?C?FPCONVERT)
  D:\KEIL_V5\C51\LIB\C51FPC.LIB (?C?FTNPWR)
  D:\KEIL_V5\C51\LIB\C51C.LIB (?C_INIT)
  D:\KEIL_V5\C51\LIB\C51C.LIB (?C?CLDPTR)
  D:\KEIL_V5\C51\LIB\C51C.LIB (?C?CLDOPTR)
  D:\KEIL_V5\C51\LIB\C51C.LIB (?C?CSTPTR)
  D:\KEIL_V5\C51\LIB\C51C.LIB (?C?UIDIV)
  D:\KEIL_V5\C51\LIB\C51C.LIB (?C?SIDIV)
  D:\KEIL_V5\C51\LIB\C51C.LIB (?C?LNEG)
  D:\KEIL_V5\C51\LIB\C51C.LIB (?C?LLDIDATA)
  D:\KEIL_V5\C51\LIB\C51C.LIB (?C?LLDIDATA0)
  D:\KEIL_V5\C51\LIB\C51C.LIB (?C?LSTIDATA)
  D:\KEIL_V5\C51\LIB\C51C.LIB (?C?LSTPDATA)
  D:\KEIL_V5\C51\LIB\C51C.LIB (?C?LSTKIDATA)
  D:\KEIL_V5\C51\LIB\C51C.LIB (?C?LSTKPDATA)
  D:\KEIL_V5\C51\LIB\C51C.LIB (?C?OFFXADD)
  D:\KEIL_V5\C51\LIB\C51C.LIB (?C?PLDIPDATA)
  D:\KEIL_V5\C51\LIB\C51C.LIB (?C?PSTPDATA)
  D:\KEIL_V5\C51\LIB\C51C.LIB (?C?CCASE)


LINK MAP OF MODULE:  .\Objects\Clock (?C_STARTUP)


            TYPE    BASE      LENGTH    RELOCATION   SEGMENT NAME
            -----------------------------------------------------

            * * * * * * *   D A T A   M E M O R Y   * * * * * * *
            REG     0000H     0008H     ABSOLUTE     "REG BANK 0"
            DATA    0008H     0005H     UNIT         _DATA_GROUP_
                    000DH     0013H                  *** GAP ***
            BIT     0020H.0   0001H.4   UNIT         _BIT_GROUP_
            BIT     0021H.4   0000H.2   UNIT         ?BI?MAIN
            BIT     0021H.6   0000H.1   UNIT         ?BI?DS18B20_READBIT?MAIN
BL51 BANKED LINKER/LOCATER V6.22                                                      03/28/2021  16:14:10  PAGE 2


                    0021H.7   0000H.1                *** GAP ***
            IDATA   0022H     0038H     UNIT         _IDATA_GROUP_
            IDATA   005AH     002CH     UNIT         ?ID?FUZZY
            IDATA   0086H     0001H     UNIT         ?STACK

            * * * * * * *  X D A T A   M E M O R Y  * * * * * * *
            XDATA   0000H     0004H     INPAGE       ?PD?DS18B20_GETTEMP?MAIN
            XDATA   0004H     0003H     INPAGE       ?PD?_UART1_SENDSTRING?MAIN
            XDATA   0007H     000BH     INPAGE       ?PD?MAIN
            XDATA   0012H     0049H     INPAGE       _PDATA_GROUP_

            * * * * * * *   C O D E   M E M O R Y   * * * * * * *
            CODE    0000H     0003H     ABSOLUTE     
            CODE    0003H     0003H     ABSOLUTE     
            CODE    0006H     001BH     UNIT         ?PR?_LCDWRITE_DATAS?MAIN
            CODE    0021H     0001H     UNIT         ?PR?UART_INTERRUPT?MAIN
                    0022H     0001H                  *** GAP ***
            CODE    0023H     0003H     ABSOLUTE     
            CODE    0026H     0728H     UNIT         ?C?LIB_CODE
            CODE    074EH     046EH     UNIT         ?PR?PRINTF?PRINTF
            CODE    0BBCH     03D9H     UNIT         ?PR?_REALIZE?FUZZY
            CODE    0F95H     0243H     UNIT         ?PR?MAIN?MAIN
            CODE    11D8H     0142H     UNIT         ?PR?_TRIMF?FUZZY
            CODE    131AH     00D8H     UNIT         ?PR?EX0_INTR?MAIN
            CODE    13F2H     00CEH     UNIT         ?PR?DISPLAY_TEMP?MAIN
            CODE    14C0H     00B0H     UNIT         ?PR?_FUZZY_CONTRLLER_INIT?FUZZY
            CODE    1570H     008CH     UNIT         ?C_C51STARTUP
            CODE    15FCH     008CH     UNIT         ?CO?FUZZY
            CODE    1688H     0068H     UNIT         ?PR?DHT11_RECEIVE?MAIN
            CODE    16F0H     0057H     UNIT         ?PR?_DS18B20_WRITEBYTE?MAIN
            CODE    1747H     004FH     UNIT         ?PR?DS18B20_GETTEMP?MAIN
            CODE    1796H     0039H     UNIT         ?PR?_PRINT_STRING?MAIN
            CODE    17CFH     0036H     UNIT         ?PR?KEY_SCAN?MAIN
            CODE    1805H     0034H     UNIT         ?PR?_UART1_SENDSTRING?MAIN
            CODE    1839H     002DH     UNIT         ?CO?MAIN
            CODE    1866H     0024H     UNIT         ?PR?DS18B20_READBIT?MAIN
            CODE    188AH     0023H     UNIT         ?PR?_LCDWRITE_COM?MAIN
            CODE    18ADH     0022H     UNIT         ?PR?_DELAYMS?MAIN
            CODE    18CFH     0022H     UNIT         ?PR?_BYTE_WRITE?EEPROM
            CODE    18F1H     0020H     UNIT         ?PR?_DHT11_DELAY_MS?MAIN
            CODE    1911H     001FH     UNIT         ?PR?DS18B20_RESET?MAIN
            CODE    1930H     001EH     UNIT         ?PR?DS18B20_READBYTE?MAIN
            CODE    194EH     001EH     UNIT         ?PR?DHT11_REC_BYTE?MAIN
            CODE    196CH     001AH     UNIT         ?PR?_BYTE_READ?EEPROM
            CODE    1986H     0019H     UNIT         ?PR?LCDINIT?MAIN
            CODE    199FH     0016H     UNIT         ?PR?MOTORCW?MAIN
            CODE    19B5H     0016H     UNIT         ?PR?MOTORCCW?MAIN
            CODE    19CBH     0015H     UNIT         ?PR?DHT11_START?MAIN
            CODE    19E0H     0014H     UNIT         ?PR?ISP_IAP_ENABLE?EEPROM
            CODE    19F4H     0013H     UNIT         ?PR?INIT_UART?MAIN
            CODE    1A07H     0013H     UNIT         ?PR?_UART_SEND_STR?MAIN
            CODE    1A1AH     0013H     UNIT         ?PR?_SECTORERASE?EEPROM
            CODE    1A2DH     000DH     UNIT         ?PR?_FABS?FABS
            CODE    1A3AH     000CH     UNIT         ?PR?_UART1_SENDDATA?MAIN
            CODE    1A46H     000BH     UNIT         ?PR?ISP_IAP_DISABLE?EEPROM
            CODE    1A51H     0008H     UNIT         ?PR?DS18B20_CHANGE?MAIN
            CODE    1A59H     0008H     UNIT         ?PR?_UART_SEND_BYTE?MAIN
BL51 BANKED LINKER/LOCATER V6.22                                                      03/28/2021  16:14:10  PAGE 3


            CODE    1A61H     0008H     UNIT         ?PR?ISPTRIG?EEPROM
            CODE    1A69H     0007H     UNIT         ?PR?EX0_INI?MAIN
            CODE    1A70H     0006H     UNIT         ?PR?_PUTCHAR?MAIN
            CODE    1A76H     0006H     UNIT         ?C_INITSEG
            CODE    1A7CH     0004H     UNIT         ?PR?MOTORSTOP?MAIN
            CODE    1A80H     0003H     UNIT         ?PR?_DHT11_DELAY_US?MAIN



OVERLAY MAP OF MODULE:   .\Objects\Clock (?C_STARTUP)


SEGMENT                                    BIT_GROUP          DATA_GROUP          IDATA_GROUP         PDATA_GROUP
  +--> CALLED SEGMENT                   START    LENGTH     START    LENGTH     START    LENGTH     START    LENGTH
-------------------------------------------------------------------------------------------------------------------
?C_C51STARTUP                           -----    -----      -----    -----      -----    -----      -----    -----
  +--> ?PR?MAIN?MAIN
  +--> ?C_INITSEG

?PR?MAIN?MAIN                           0020H.0  0000H.2    -----    -----      -----    -----      0012H    0010H
  +--> ?PR?_BYTE_READ?EEPROM
  +--> ?PR?LCDINIT?MAIN
  +--> ?PR?INIT_UART?MAIN
  +--> ?PR?EX0_INI?MAIN
  +--> ?PR?_FUZZY_CONTRLLER_INIT?FUZZY
  +--> ?PR?_DELAYMS?MAIN
  +--> ?CO?MAIN
  +--> ?PR?PRINTF?PRINTF
  +--> ?PR?DHT11_RECEIVE?MAIN
  +--> ?PR?DS18B20_CHANGE?MAIN
  +--> ?PR?DISPLAY_TEMP?MAIN
  +--> ?PR?_REALIZE?FUZZY
  +--> ?PR?_LCDWRITE_COM?MAIN
  +--> ?PR?_FABS?FABS
  +--> ?PR?_LCDWRITE_DATAS?MAIN
  +--> ?PR?MOTORCW?MAIN
  +--> ?PR?MOTORCCW?MAIN

?PR?_BYTE_READ?EEPROM                   -----    -----      -----    -----      -----    -----      -----    -----
  +--> ?PR?ISP_IAP_ENABLE?EEPROM
  +--> ?PR?ISPTRIG?EEPROM
  +--> ?PR?ISP_IAP_DISABLE?EEPROM

?PR?LCDINIT?MAIN                        -----    -----      -----    -----      -----    -----      -----    -----
  +--> ?PR?_LCDWRITE_COM?MAIN

?PR?_LCDWRITE_COM?MAIN                  -----    -----      -----    -----      -----    -----      -----    -----
  +--> ?PR?_DELAYMS?MAIN

?PR?_FUZZY_CONTRLLER_INIT?FUZZY         -----    -----      -----    -----      -----    -----      0022H    000CH

?PR?PRINTF?PRINTF                       0020H.2  0001H.1    0008H    0005H      -----    -----      0022H    0017H
  +--> ?PR?_PUTCHAR?MAIN

?PR?_PUTCHAR?MAIN                       -----    -----      -----    -----      -----    -----      -----    -----
  +--> ?PR?_UART1_SENDDATA?MAIN

BL51 BANKED LINKER/LOCATER V6.22                                                      03/28/2021  16:14:10  PAGE 4


?PR?DHT11_RECEIVE?MAIN                  -----    -----      -----    -----      -----    -----      0022H    0002H
  +--> ?PR?DHT11_START?MAIN
  +--> ?PR?_DHT11_DELAY_US?MAIN
  +--> ?PR?DHT11_REC_BYTE?MAIN

?PR?DHT11_START?MAIN                    -----    -----      -----    -----      -----    -----      -----    -----
  +--> ?PR?_DHT11_DELAY_US?MAIN
  +--> ?PR?_DHT11_DELAY_MS?MAIN

?PR?DHT11_REC_BYTE?MAIN                 -----    -----      -----    -----      -----    -----      -----    -----
  +--> ?PR?_DHT11_DELAY_US?MAIN

?PR?DS18B20_CHANGE?MAIN                 -----    -----      -----    -----      -----    -----      -----    -----
  +--> ?PR?_DS18B20_WRITEBYTE?MAIN

?PR?_DS18B20_WRITEBYTE?MAIN             0020H.2  0000H.1    -----    -----      -----    -----      -----    -----
  +--> ?PR?DS18B20_RESET?MAIN
  +--> ?PR?_DELAYMS?MAIN

?PR?DISPLAY_TEMP?MAIN                   -----    -----      -----    -----      -----    -----      -----    -----
  +--> ?PR?_LCDWRITE_COM?MAIN
  +--> ?PR?_LCDWRITE_DATAS?MAIN

?PR?_LCDWRITE_DATAS?MAIN                -----    -----      -----    -----      -----    -----      -----    -----
  +--> ?PR?_DELAYMS?MAIN

?PR?_REALIZE?FUZZY                      -----    -----      -----    -----      0022H    0038H      0022H    001FH
  +--> ?CO?FUZZY
  +--> ?PR?_TRIMF?FUZZY

?PR?_TRIMF?FUZZY                        -----    -----      -----    -----      -----    -----      0041H    0014H

?PR?MOTORCW?MAIN                        -----    -----      -----    -----      -----    -----      -----    -----
  +--> ?CO?MAIN
  +--> ?PR?_DELAYMS?MAIN

?PR?MOTORCCW?MAIN                       -----    -----      -----    -----      -----    -----      -----    -----
  +--> ?CO?MAIN
  +--> ?PR?_DELAYMS?MAIN

*** NEW ROOT ***************************************************

?PR?EX0_INTR?MAIN                       -----    -----      -----    -----      -----    -----      0055H    0001H
  +--> ?PR?_DELAYMS?MAIN
  +--> ?PR?_LCDWRITE_COM?MAIN
  +--> ?PR?DISPLAY_TEMP?MAIN
  +--> ?PR?KEY_SCAN?MAIN
  +--> ?PR?_SECTORERASE?EEPROM
  +--> ?PR?_BYTE_WRITE?EEPROM
  +--> ?CO?MAIN
  +--> ?PR?_PRINT_STRING?MAIN

?PR?KEY_SCAN?MAIN                       0021H.3  0000H.1    -----    -----      -----    -----      -----    -----
  +--> ?PR?_DELAYMS?MAIN

?PR?_SECTORERASE?EEPROM                 -----    -----      -----    -----      -----    -----      -----    -----
  +--> ?PR?ISP_IAP_ENABLE?EEPROM
BL51 BANKED LINKER/LOCATER V6.22                                                      03/28/2021  16:14:10  PAGE 5


  +--> ?PR?ISPTRIG?EEPROM
  +--> ?PR?ISP_IAP_DISABLE?EEPROM

?PR?_BYTE_WRITE?EEPROM                  -----    -----      -----    -----      -----    -----      -----    -----
  +--> ?PR?ISP_IAP_ENABLE?EEPROM
  +--> ?PR?ISPTRIG?EEPROM
  +--> ?PR?ISP_IAP_DISABLE?EEPROM

?PR?_PRINT_STRING?MAIN                  -----    -----      -----    -----      -----    -----      0056H    0005H
  +--> ?PR?_LCDWRITE_DATAS?MAIN



SYMBOL TABLE OF MODULE:  .\Objects\Clock (?C_STARTUP)

  VALUE           TYPE          NAME
  ----------------------------------

  -------         MODULE        ?C_STARTUP
  C:1570H         SEGMENT       ?C_C51STARTUP
  I:0086H         SEGMENT       ?STACK
  C:0000H         PUBLIC        ?C_STARTUP
  D:00E0H         SYMBOL        ACC
  D:00F0H         SYMBOL        B
  D:0083H         SYMBOL        DPH
  D:0082H         SYMBOL        DPL
  N:0000H         SYMBOL        IBPSTACK
  N:0100H         SYMBOL        IBPSTACKTOP
  N:0080H         SYMBOL        IDATALEN
  C:1573H         SYMBOL        IDATALOOP
  N:0000H         SYMBOL        PBPSTACK
  N:0100H         SYMBOL        PBPSTACKTOP
  N:0000H         SYMBOL        PDATALEN
  N:0000H         SYMBOL        PDATASTART
  N:0000H         SYMBOL        PPAGE
  N:0000H         SYMBOL        PPAGEENABLE
  D:00A0H         SYMBOL        PPAGE_SFR
  D:0081H         SYMBOL        SP
  C:1570H         SYMBOL        STARTUP1
  N:0000H         SYMBOL        XBPSTACK
  N:0000H         SYMBOL        XBPSTACKTOP
  N:0000H         SYMBOL        XDATALEN
  N:0000H         SYMBOL        XDATASTART
  C:0000H         LINE#         126
  C:1570H         LINE#         133
  C:1572H         LINE#         134
  C:1573H         LINE#         135
  C:1574H         LINE#         136
  C:1576H         LINE#         185
  C:1579H         LINE#         196
  -------         ENDMOD        ?C_STARTUP

  -------         MODULE        MAIN
  C:0000H         SYMBOL        _ICE_DUMMY_
  C:1A80H         PUBLIC        _DHT11_delay_us
  D:0080H         PUBLIC        P0
  D:0090H         PUBLIC        P1
BL51 BANKED LINKER/LOCATER V6.22                                                      03/28/2021  16:14:10  PAGE 6


  D:00A0H         PUBLIC        P2
  D:00B0H         PUBLIC        P3
  C:1899H         PUBLIC        _lcdwrite_com
  B:00A8H.7       PUBLIC        EA
  C:1A07H         PUBLIC        _uart_send_str
  C:1688H         PUBLIC        DHT11_receive
  C:1911H         PUBLIC        DS18B20_Reset
  D:00A8H         PUBLIC        IE
  X:0007H         PUBLIC        timeSlices_5ms
  C:0021H         PUBLIC        uart_interrupt
  C:13F2H         PUBLIC        display_temp
  B:00A8H.4       PUBLIC        ES
  D:00B8H         PUBLIC        IP
  B:0080H.0       PUBLIC        KEY1
  B:0098H.0       PUBLIC        RI
  C:1930H         PUBLIC        DS18B20_ReadByte
  B:0080H.1       PUBLIC        KEY2
  B:00B0H.2       PUBLIC        KEY3
  B:0098H.1       PUBLIC        TI
  B:00B0H.7       PUBLIC        RS
  C:1866H         PUBLIC        DS18B20_ReadBit
  X:000BH         PUBLIC        except_temp
  C:0F95H         PUBLIC        main
  B:00B0H.6       PUBLIC        RW
  C:16FCH         PUBLIC        _DS18B20_WriteByte
  C:1796H         PUBLIC        _print_string
  C:131AH         PUBLIC        ex0_intr
  C:199FH         PUBLIC        MotorCW
  D:0099H         PUBLIC        SBUF
  C:18B1H         PUBLIC        _DelayMs
  D:0098H         PUBLIC        SCON
  D:0089H         PUBLIC        TMOD
  D:0088H         PUBLIC        TCON
  C:1A7CH         PUBLIC        MotorStop
  B:00B0H.3       PUBLIC        DHT11_DATA
  C:1747H         PUBLIC        DS18B20_GetTemp
  B:00B0H.5       PUBLIC        E
  B:0021H.5       PUBLIC        EX0_flag
  B:00B0H.4       PUBLIC        LCD_RESOLUTION
  B:00A8H.0       PUBLIC        EX0
  B:0088H.0       PUBLIC        IT0
  D:008DH         PUBLIC        TH1
  C:1A51H         PUBLIC        DS18B20_Change
  D:008BH         PUBLIC        TL1
  C:17CFH         PUBLIC        key_scan
  C:1862H         PUBLIC        phaseccw
  C:000DH         PUBLIC        _lcdwrite_datas
  C:19CBH         PUBLIC        DHT11_start
  C:19F4H         PUBLIC        init_uart
  X:000CH         PUBLIC        rec_dat
  C:1805H         PUBLIC        _UART1_SendString
  B:0088H.6       PUBLIC        TR1
  C:1A3AH         PUBLIC        _UART1_SendData
  C:1A59H         PUBLIC        _uart_send_byte
  X:0010H         PUBLIC        cur_temp
  D:00C8H         PUBLIC        T2CON
  C:1986H         PUBLIC        lcdinit
BL51 BANKED LINKER/LOCATER V6.22                                                      03/28/2021  16:14:10  PAGE 7


  C:1A69H         PUBLIC        Ex0_Ini
  C:185EH         PUBLIC        phasecw
  C:19B5H         PUBLIC        MotorCCW
  B:0080H.3       PUBLIC        DS_Data
  C:194EH         PUBLIC        DHT11_rec_byte
  C:18F1H         PUBLIC        _DHT11_delay_ms
  D:00D0H         PUBLIC        PSW
  C:1A70H         PUBLIC        _putchar
  -------         PROC          MAIN
  -------         DO            
  B:0020H.0       SYMBOL        start
  B:0020H.1       SYMBOL        mode
  X:0012H         SYMBOL        i
  X:0014H         SYMBOL        tmp
  X:0016H         SYMBOL        target
  X:001AH         SYMBOL        actual
  X:001EH         SYMBOL        u
  -------         ENDDO         
  C:0F95H         LINE#         74
  C:0F95H         LINE#         75
  C:0F95H         LINE#         76
  C:0F97H         LINE#         77
  C:0F99H         LINE#         80
  C:0FA2H         LINE#         81
  C:0FABH         LINE#         82
  C:0FB4H         LINE#         84
  C:0FBFH         LINE#         85
  C:0FC1H         LINE#         86
  C:0FC4H         LINE#         87
  C:0FC7H         LINE#         88
  C:0FC9H         LINE#         89
  C:0FCCH         LINE#         90
  C:0FE9H         LINE#         91
  C:0FF0H         LINE#         92
  C:0FF9H         LINE#         93
  C:0FF9H         LINE#         94
  C:0FF9H         LINE#         95
  C:0FFCH         LINE#         96
  C:0FFCH         LINE#         97
  C:0FFEH         LINE#         98
  C:1000H         LINE#         99
  C:1000H         LINE#         100
  C:1003H         LINE#         101
  C:1019H         LINE#         102
  C:101CH         LINE#         104
  C:101FH         LINE#         106
  C:102CH         LINE#         107
  C:1046H         LINE#         109
  C:106DH         LINE#         110
  C:108FH         LINE#         111
  C:1092H         LINE#         112
  C:10AAH         LINE#         113
  C:10AAH         LINE#         114
  C:10BFH         LINE#         115
  C:10C2H         LINE#         116
  C:10C2H         LINE#         117
  C:10C2H         LINE#         118
BL51 BANKED LINKER/LOCATER V6.22                                                      03/28/2021  16:14:10  PAGE 8


  C:10C2H         LINE#         119
  C:10C2H         LINE#         120
  C:10C4H         LINE#         122
  C:10C4H         LINE#         123
  C:10DBH         LINE#         124
  C:10DEH         LINE#         125
  C:10E3H         LINE#         126
  C:10F1H         LINE#         127
  C:10F6H         LINE#         128
  C:1111H         LINE#         129
  C:1126H         LINE#         130
  C:1126H         LINE#         132
  C:113EH         LINE#         133
  C:113EH         LINE#         134
  C:1160H         LINE#         135
  C:117AH         LINE#         136
  C:117AH         LINE#         137
  C:117DH         LINE#         138
  C:118AH         LINE#         139
  C:118AH         LINE#         141
  C:118AH         LINE#         142
  C:11AEH         LINE#         143
  C:11C8H         LINE#         144
  C:11C8H         LINE#         145
  C:11CBH         LINE#         146
  -------         ENDPROC       MAIN
  -------         PROC          DISPLAY_TEMP
  C:13F2H         LINE#         151
  C:13F2H         LINE#         152
  C:13F2H         LINE#         153
  C:13F7H         LINE#         158
  C:13FCH         LINE#         159
  C:1401H         LINE#         160
  C:1406H         LINE#         161
  C:140BH         LINE#         162
  C:1410H         LINE#         164
  C:141AH         LINE#         165
  C:141AH         LINE#         166
  C:141FH         LINE#         167
  C:141FH         LINE#         168
  C:1430H         LINE#         169
  C:144EH         LINE#         170
  C:1453H         LINE#         171
  C:1468H         LINE#         172
  C:146DH         LINE#         173
  C:1472H         LINE#         175
  C:1477H         LINE#         176
  C:147CH         LINE#         177
  C:1481H         LINE#         178
  C:1486H         LINE#         179
  C:148BH         LINE#         180
  C:1490H         LINE#         181
  C:1495H         LINE#         187
  C:149AH         LINE#         188
  C:14A7H         LINE#         189
  C:14B6H         LINE#         190
  C:14BBH         LINE#         191
BL51 BANKED LINKER/LOCATER V6.22                                                      03/28/2021  16:14:10  PAGE 9


  -------         ENDPROC       DISPLAY_TEMP
  C:18ADH         SYMBOL        L?0154
  -------         PROC          L?0153
  -------         ENDPROC       L?0153
  C:18ADH         SYMBOL        L?0154
  -------         PROC          _DELAYMS
  D:0006H         SYMBOL        i
  -------         DO            
  D:0006H         SYMBOL        j
  D:0004H         SYMBOL        k
  -------         ENDDO         
  C:18B1H         LINE#         199
  C:18B1H         LINE#         200
  C:18B1H         LINE#         203
  C:18BAH         LINE#         204
  C:18CEH         LINE#         205
  -------         ENDPROC       _DELAYMS
  -------         PROC          EX0_INI
  C:1A69H         LINE#         207
  C:1A69H         LINE#         208
  C:1A69H         LINE#         210
  C:1A6BH         LINE#         211
  C:1A6DH         LINE#         213
  C:1A6FH         LINE#         216
  -------         ENDPROC       EX0_INI
  -------         PROC          EX0_INTR
  -------         DO            
  X:0055H         SYMBOL        key_value
  -------         ENDDO         
  C:131AH         LINE#         217
  C:1337H         LINE#         220
  C:1339H         LINE#         221
  C:133FH         LINE#         222
  C:133FH         LINE#         223
  C:1342H         LINE#         224
  C:1345H         LINE#         225
  C:1345H         LINE#         226
  C:1347H         LINE#         227
  C:1349H         LINE#         228
  C:134EH         LINE#         229
  C:1353H         LINE#         230
  C:1353H         LINE#         231
  C:1356H         LINE#         232
  C:135FH         LINE#         233
  C:1368H         LINE#         234
  C:1368H         LINE#         235
  C:136FH         LINE#         236
  C:136FH         LINE#         237
  C:1374H         LINE#         238
  C:1376H         LINE#         239
  C:137AH         LINE#         240
  C:137AH         LINE#         241
  C:137FH         LINE#         242
  C:137FH         LINE#         244
  C:1387H         LINE#         245
  C:1387H         LINE#         246
  C:138AH         LINE#         247
BL51 BANKED LINKER/LOCATER V6.22                                                      03/28/2021  16:14:10  PAGE 10


  C:138AH         LINE#         248
  C:1392H         LINE#         249
  C:1392H         LINE#         250
  C:1395H         LINE#         251
  C:1395H         LINE#         252
  C:139CH         LINE#         253
  C:13A7H         LINE#         254
  C:13A7H         LINE#         255
  C:13ADH         LINE#         257
  C:13B2H         LINE#         258
  C:13B7H         LINE#         259
  C:13BCH         LINE#         260
  C:13C5H         LINE#         261
  C:13CCH         LINE#         262
  C:13D1H         LINE#         263
  C:13D3H         LINE#         264
  C:13D5H         LINE#         265
  C:13D7H         LINE#         266
  C:13D7H         LINE#         267
  -------         ENDPROC       EX0_INTR
  -------         PROC          KEY_SCAN
  B:0021H.3       SYMBOL        mode
  -------         DO            
  B:0021H.4       SYMBOL        key_up
  -------         ENDDO         
  C:17CFH         LINE#         268
  C:17CFH         LINE#         269
  C:17CFH         LINE#         272
  C:17D2H         LINE#         273
  C:17D2H         LINE#         274
  C:17D4H         LINE#         275
  C:17D4H         LINE#         276
  C:17E0H         LINE#         277
  C:17E0H         LINE#         278
  C:17E3H         LINE#         279
  C:17E5H         LINE#         280
  C:17EBH         LINE#         281
  C:17F1H         LINE#         282
  C:17F7H         LINE#         283
  C:17F7H         LINE#         284
  C:1800H         LINE#         285
  C:1800H         LINE#         286
  C:1802H         LINE#         287
  C:1802H         LINE#         289
  C:1804H         LINE#         290
  -------         ENDPROC       KEY_SCAN
  -------         PROC          _PRINT_STRING
  X:0056H         SYMBOL        str
  -------         DO            
  X:0059H         SYMBOL        i
  -------         ENDDO         
  C:1796H         LINE#         300
  C:17A0H         LINE#         301
  C:17A0H         LINE#         303
  C:17BEH         LINE#         304
  C:17BEH         LINE#         305
  C:17C1H         LINE#         306
BL51 BANKED LINKER/LOCATER V6.22                                                      03/28/2021  16:14:10  PAGE 11


  C:17CEH         LINE#         307
  -------         ENDPROC       _PRINT_STRING
  -------         PROC          L?0151
  -------         ENDPROC       L?0151
  -------         PROC          _LCDWRITE_COM
  D:0007H         SYMBOL        datas
  C:1899H         LINE#         309
  C:1899H         LINE#         310
  C:1899H         LINE#         311
  C:189BH         LINE#         312
  C:189DH         LINE#         313
  C:189FH         LINE#         315
  C:18A1H         LINE#         316
  C:18A8H         LINE#         318
  C:18AAH         LINE#         320
  C:18ACH         LINE#         322
  -------         ENDPROC       _LCDWRITE_COM
  C:0009H         SYMBOL        L?0150
  -------         PROC          L?0149
  -------         ENDPROC       L?0149
  C:0009H         SYMBOL        L?0150
  -------         PROC          _LCDWRITE_DATAS
  D:0007H         SYMBOL        datas
  C:000DH         LINE#         324
  C:000DH         LINE#         325
  C:000DH         LINE#         326
  C:000FH         LINE#         327
  C:0011H         LINE#         328
  C:0013H         LINE#         330
  C:0015H         LINE#         331
  C:001CH         LINE#         333
  C:001EH         LINE#         335
  C:0020H         LINE#         337
  -------         ENDPROC       _LCDWRITE_DATAS
  -------         PROC          LCDINIT
  C:1986H         LINE#         339
  C:1986H         LINE#         340
  C:1986H         LINE#         341
  C:198BH         LINE#         342
  C:1990H         LINE#         343
  C:1995H         LINE#         344
  C:199AH         LINE#         345
  -------         ENDPROC       LCDINIT
  -------         PROC          DS18B20_RESET
  -------         DO            
  D:0006H         SYMBOL        i
  -------         ENDDO         
  C:1911H         LINE#         355
  C:1911H         LINE#         356
  C:1911H         LINE#         359
  C:1913H         LINE#         360
  C:1917H         LINE#         361
  C:1920H         LINE#         363
  C:1922H         LINE#         364
  C:1926H         LINE#         365
  C:192FH         LINE#         366
  -------         ENDPROC       DS18B20_RESET
BL51 BANKED LINKER/LOCATER V6.22                                                      03/28/2021  16:14:10  PAGE 12


  -------         PROC          DS18B20_READBIT
  -------         DO            
  D:0006H         SYMBOL        i
  B:0021H.6       SYMBOL        dat
  -------         ENDDO         
  C:1866H         LINE#         373
  C:1866H         LINE#         374
  C:1866H         LINE#         378
  C:1868H         LINE#         379
  C:186CH         LINE#         380
  C:186EH         LINE#         381
  C:1872H         LINE#         382
  C:1876H         LINE#         383
  C:187AH         LINE#         385
  C:187EH         LINE#         386
  C:1887H         LINE#         388
  C:1889H         LINE#         389
  -------         ENDPROC       DS18B20_READBIT
  -------         PROC          DS18B20_READBYTE
  -------         DO            
  D:0004H         SYMBOL        i
  D:0007H         SYMBOL        j
  D:0005H         SYMBOL        dat
  -------         ENDDO         
  C:1930H         LINE#         396
  C:1930H         LINE#         397
  C:1930H         LINE#         400
  C:1932H         LINE#         401
  C:1934H         LINE#         402
  C:1934H         LINE#         403
  C:193AH         LINE#         404
  C:1946H         LINE#         405
  C:194BH         LINE#         407
  C:194DH         LINE#         408
  -------         ENDPROC       DS18B20_READBYTE
  -------         PROC          L?0152
  -------         ENDPROC       L?0152
  -------         PROC          _DS18B20_WRITEBYTE
  D:0007H         SYMBOL        dat
  -------         DO            
  D:0002H         SYMBOL        i
  D:0007H         SYMBOL        j
  D:0001H         SYMBOL        k
  B:0020H.2       SYMBOL        b
  -------         ENDDO         
  C:16FCH         LINE#         415
  C:16FCH         LINE#         416
  C:16FCH         LINE#         421
  C:16FEH         LINE#         423
  C:1700H         LINE#         424
  C:1700H         LINE#         425
  C:1704H         LINE#         426
  C:1708H         LINE#         427
  C:170BH         LINE#         428
  C:170BH         LINE#         429
  C:170DH         LINE#         430
  C:1715H         LINE#         431
BL51 BANKED LINKER/LOCATER V6.22                                                      03/28/2021  16:14:10  PAGE 13


  C:1717H         LINE#         432
  C:171BH         LINE#         433
  C:1726H         LINE#         434
  C:1726H         LINE#         436
  C:1726H         LINE#         437
  C:1728H         LINE#         438
  C:172CH         LINE#         439
  C:1735H         LINE#         440
  C:1737H         LINE#         441
  C:1741H         LINE#         442
  C:1741H         LINE#         444
  C:1746H         LINE#         445
  -------         ENDPROC       _DS18B20_WRITEBYTE
  -------         PROC          DS18B20_CHANGE
  C:1A51H         LINE#         452
  C:1A51H         LINE#         453
  C:1A51H         LINE#         454
  C:1A51H         LINE#         455
  C:1A51H         LINE#         456
  C:1A54H         LINE#         457
  -------         ENDPROC       DS18B20_CHANGE
  -------         PROC          DS18B20_GETTEMP
  -------         DO            
  X:0000H         SYMBOL        t
  D:0003H         SYMBOL        a
  D:0007H         SYMBOL        b
  D:0006H         SYMBOL        temp
  -------         ENDDO         
  C:1747H         LINE#         465
  C:1747H         LINE#         466
  C:1747H         LINE#         471
  C:1747H         LINE#         472
  C:1747H         LINE#         473
  C:174AH         LINE#         474
  C:174FH         LINE#         475
  C:1754H         LINE#         476
  C:1757H         LINE#         478
  C:1757H         LINE#         479
  C:1759H         LINE#         480
  C:175BH         LINE#         481
  C:1771H         LINE#         482
  C:1795H         LINE#         484
  C:1795H         LINE#         485
  -------         ENDPROC       DS18B20_GETTEMP
  -------         PROC          MOTORCW
  -------         DO            
  D:0003H         SYMBOL        i
  -------         ENDDO         
  C:199FH         LINE#         489
  C:199FH         LINE#         490
  C:199FH         LINE#         492
  C:19A1H         LINE#         493
  C:19A1H         LINE#         494
  C:19A8H         LINE#         495
  C:19AFH         LINE#         496
  C:19B4H         LINE#         497
  -------         ENDPROC       MOTORCW
BL51 BANKED LINKER/LOCATER V6.22                                                      03/28/2021  16:14:10  PAGE 14


  -------         PROC          MOTORCCW
  -------         DO            
  D:0003H         SYMBOL        i
  -------         ENDDO         
  C:19B5H         LINE#         499
  C:19B5H         LINE#         500
  C:19B5H         LINE#         502
  C:19B7H         LINE#         503
  C:19B7H         LINE#         504
  C:19BEH         LINE#         505
  C:19C5H         LINE#         506
  C:19CAH         LINE#         507
  -------         ENDPROC       MOTORCCW
  -------         PROC          MOTORSTOP
  C:1A7CH         LINE#         509
  C:1A7CH         LINE#         510
  C:1A7CH         LINE#         511
  C:1A7FH         LINE#         512
  -------         ENDPROC       MOTORSTOP
  -------         PROC          UART_INTERRUPT
  C:0021H         LINE#         521
  C:0021H         LINE#         523
  C:0021H         LINE#         524
  C:0021H         LINE#         527
  C:0021H         LINE#         535
  -------         ENDPROC       UART_INTERRUPT
  -------         PROC          INIT_UART
  C:19F4H         LINE#         545
  C:19F4H         LINE#         546
  C:19F4H         LINE#         547
  C:19F7H         LINE#         548
  C:19FAH         LINE#         549
  C:19FDH         LINE#         550
  C:1A00H         LINE#         551
  C:1A02H         LINE#         552
  C:1A04H         LINE#         553
  C:1A06H         LINE#         554
  -------         ENDPROC       INIT_UART
  -------         PROC          _UART_SEND_BYTE
  D:0007H         SYMBOL        dat
  C:1A59H         LINE#         563
  C:1A59H         LINE#         564
  C:1A59H         LINE#         565
  C:1A5BH         LINE#         566
  C:1A5EH         LINE#         567
  C:1A60H         LINE#         568
  -------         ENDPROC       _UART_SEND_BYTE
  -------         PROC          _UART_SEND_STR
  D:0001H         SYMBOL        s
  C:1A07H         LINE#         577
  C:1A07H         LINE#         578
  C:1A07H         LINE#         579
  C:1A0DH         LINE#         580
  C:1A0DH         LINE#         581
  C:1A10H         LINE#         582
  C:1A17H         LINE#         583
  C:1A19H         LINE#         584
BL51 BANKED LINKER/LOCATER V6.22                                                      03/28/2021  16:14:10  PAGE 15


  -------         ENDPROC       _UART_SEND_STR
  -------         PROC          _UART1_SENDDATA
  D:0007H         SYMBOL        dat
  C:1A3AH         LINE#         587
  C:1A3AH         LINE#         588
  C:1A3AH         LINE#         589
  C:1A3CH         LINE#         590
  C:1A3EH         LINE#         591
  C:1A41H         LINE#         592
  C:1A43H         LINE#         593
  C:1A45H         LINE#         594
  -------         ENDPROC       _UART1_SENDDATA
  -------         PROC          _UART1_SENDSTRING
  X:0004H         SYMBOL        s
  C:1805H         LINE#         597
  C:180FH         LINE#         598
  C:180FH         LINE#         599
  C:181EH         LINE#         600
  C:181EH         LINE#         601
  C:1836H         LINE#         602
  C:1838H         LINE#         603
  -------         ENDPROC       _UART1_SENDSTRING
  -------         PROC          _PUTCHAR
  D:0006H         SYMBOL        c
  C:1A70H         LINE#         606
  C:1A72H         LINE#         607
  C:1A72H         LINE#         608
  C:1A75H         LINE#         609
  C:1A75H         LINE#         610
  -------         ENDPROC       _PUTCHAR
  -------         PROC          _DHT11_DELAY_US
  D:0007H         SYMBOL        n
  C:1A80H         LINE#         612
  C:1A80H         LINE#         613
  C:1A80H         LINE#         614
  C:1A82H         LINE#         615
  -------         ENDPROC       _DHT11_DELAY_US
  -------         PROC          _DHT11_DELAY_MS
  D:0007H         SYMBOL        z
  -------         DO            
  D:0006H         SYMBOL        i
  D:0004H         SYMBOL        j
  -------         ENDDO         
  C:18F1H         LINE#         617
  C:18F1H         LINE#         618
  C:18F1H         LINE#         620
  C:18FCH         LINE#         621
  C:1910H         LINE#         622
  -------         ENDPROC       _DHT11_DELAY_MS
  -------         PROC          DHT11_START
  C:19CBH         LINE#         624
  C:19CBH         LINE#         625
  C:19CBH         LINE#         626
  C:19CDH         LINE#         627
  C:19D2H         LINE#         628
  C:19D4H         LINE#         629
  C:19D9H         LINE#         630
BL51 BANKED LINKER/LOCATER V6.22                                                      03/28/2021  16:14:10  PAGE 16


  C:19DBH         LINE#         631
  -------         ENDPROC       DHT11_START
  -------         PROC          DHT11_REC_BYTE
  -------         DO            
  D:0005H         SYMBOL        i
  D:0006H         SYMBOL        dat
  -------         ENDDO         
  C:194EH         LINE#         634
  C:194EH         LINE#         635
  C:194EH         LINE#         636
  C:1950H         LINE#         637
  C:1951H         LINE#         638
  C:1951H         LINE#         639
  C:1954H         LINE#         640
  C:1959H         LINE#         641
  C:195DH         LINE#         642
  C:1960H         LINE#         643
  C:1961H         LINE#         644
  C:1964H         LINE#         645
  C:1969H         LINE#         646
  C:196BH         LINE#         647
  -------         ENDPROC       DHT11_REC_BYTE
  -------         PROC          DHT11_RECEIVE
  -------         DO            
  X:0022H         SYMBOL        R_H
  D:0001H         SYMBOL        R_L
  D:0004H         SYMBOL        T_H
  D:0003H         SYMBOL        T_L
  X:0023H         SYMBOL        revise
  -------         ENDDO         
  C:1688H         LINE#         649
  C:1688H         LINE#         650
  C:1688H         LINE#         652
  C:168BH         LINE#         653
  C:168EH         LINE#         654
  C:168EH         LINE#         655
  C:1691H         LINE#         656
  C:1696H         LINE#         657
  C:169DH         LINE#         658
  C:16A2H         LINE#         659
  C:16A7H         LINE#         660
  C:16ACH         LINE#         661
  C:16B2H         LINE#         663
  C:16B7H         LINE#         665
  C:16DBH         LINE#         666
  C:16DBH         LINE#         667
  C:16E0H         LINE#         668
  C:16E5H         LINE#         669
  C:16EAH         LINE#         670
  C:16EFH         LINE#         671
  C:16EFH         LINE#         672
  C:16EFH         LINE#         673
  -------         ENDPROC       DHT11_RECEIVE
  -------         ENDMOD        MAIN

  -------         MODULE        EEPROM
  C:0000H         SYMBOL        _ICE_DUMMY_
BL51 BANKED LINKER/LOCATER V6.22                                                      03/28/2021  16:14:10  PAGE 17


  D:0090H         PUBLIC        P1
  D:00B0H         PUBLIC        P3
  D:00E6H         PUBLIC        ISP_TRIG
  C:1A61H         PUBLIC        ISPTrig
  B:00A8H.7       PUBLIC        EA
  D:00A8H         PUBLIC        IE
  D:00B8H         PUBLIC        IP
  D:00E5H         PUBLIC        ISP_CMD
  D:00E3H         PUBLIC        ISP_ADDRH
  D:0098H         PUBLIC        SCON
  C:196CH         PUBLIC        _byte_read
  D:0088H         PUBLIC        TCON
  D:00E4H         PUBLIC        ISP_ADDRL
  C:1A46H         PUBLIC        ISP_IAP_Disable
  C:18CFH         PUBLIC        _byte_write
  C:19E8H         PUBLIC        ISP_IAP_Enable
  D:00E7H         PUBLIC        ISP_CONTR
  C:1A1AH         PUBLIC        _SectorErase
  D:00C8H         PUBLIC        T2CON
  D:00E2H         PUBLIC        ISP_DATA
  D:00D0H         PUBLIC        PSW
  -------         PROC          L?0007
  -------         ENDPROC       L?0007
  -------         PROC          ISP_IAP_ENABLE
  C:19E8H         LINE#         4
  C:19E8H         LINE#         5
  C:19E8H         LINE#         6
  C:19EAH         LINE#         7
  C:19EDH         LINE#         8
  C:19F0H         LINE#         9
  C:19F3H         LINE#         10
  -------         ENDPROC       ISP_IAP_ENABLE
  -------         PROC          ISP_IAP_DISABLE
  C:1A46H         LINE#         13
  C:1A46H         LINE#         14
  C:1A46H         LINE#         15
  C:1A49H         LINE#         16
  C:1A4CH         LINE#         17
  C:1A4EH         LINE#         18
  C:1A50H         LINE#         19
  -------         ENDPROC       ISP_IAP_DISABLE
  -------         PROC          ISPTRIG
  C:1A61H         LINE#         22
  C:1A61H         LINE#         23
  C:1A61H         LINE#         24
  C:1A64H         LINE#         25
  C:1A67H         LINE#         26
  C:1A68H         LINE#         27
  -------         ENDPROC       ISPTRIG
  -------         PROC          _BYTE_READ
  D:0004H         SYMBOL        byte_addr
  -------         DO            
  D:0007H         SYMBOL        dat
  -------         ENDDO         
  C:196CH         LINE#         30
  C:1970H         LINE#         31
  C:1970H         LINE#         32
BL51 BANKED LINKER/LOCATER V6.22                                                      03/28/2021  16:14:10  PAGE 18


  C:1972H         LINE#         34
  C:1972H         LINE#         35
  C:1972H         LINE#         36
  C:1972H         LINE#         37
  C:1975H         LINE#         38
  C:1978H         LINE#         39
  C:197BH         LINE#         40
  C:197EH         LINE#         41
  C:1980H         LINE#         42
  C:1983H         LINE#         43
  C:1985H         LINE#         44
  C:1985H         LINE#         45
  -------         ENDPROC       _BYTE_READ
  -------         PROC          _BYTE_WRITE
  D:0002H         SYMBOL        byte_addr
  D:0005H         SYMBOL        Orig_data
  C:18CFH         LINE#         48
  C:18D3H         LINE#         49
  C:18D3H         LINE#         50
  C:18D5H         LINE#         51
  C:18D8H         LINE#         52
  C:18DBH         LINE#         53
  C:18DEH         LINE#         54
  C:18E1H         LINE#         55
  C:18E4H         LINE#         56
  C:18E8H         LINE#         57
  C:18EBH         LINE#         58
  C:18EEH         LINE#         59
  C:18F0H         LINE#         60
  -------         ENDPROC       _BYTE_WRITE
  -------         PROC          _SECTORERASE
  D:0004H         SYMBOL        sector_addr
  C:1A1AH         LINE#         62
  C:1A1EH         LINE#         63
  C:1A1EH         LINE#         64
  C:1A1EH         LINE#         65
  C:1A1EH         LINE#         66
  C:1A1EH         LINE#         67
  C:1A21H         LINE#         68
  C:1A24H         LINE#         69
  C:1A27H         LINE#         70
  C:1A2AH         LINE#         71
  -------         ENDPROC       _SECTORERASE
  -------         ENDMOD        EEPROM

  -------         MODULE        FUZZY
  C:0000H         SYMBOL        _ICE_DUMMY_
  I:005AH         PUBLIC        target
  I:005EH         PUBLIC        e_pre
  I:0062H         PUBLIC        demax
  I:0066H         PUBLIC        Kde
  C:11D8H         PUBLIC        _trimf
  I:006AH         PUBLIC        emax
  I:006EH         PUBLIC        Ke
  C:15FCH         PUBLIC        ruleMatrix
  I:0072H         PUBLIC        umax
  I:0076H         PUBLIC        Ku
BL51 BANKED LINKER/LOCATER V6.22                                                      03/28/2021  16:14:10  PAGE 19


  I:007AH         PUBLIC        de
  C:165EH         PUBLIC        mf_paras
  C:14C0H         PUBLIC        _Fuzzy_contrller_Init
  I:007EH         PUBLIC        e
  C:0BBCH         PUBLIC        _realize
  I:0082H         PUBLIC        actual
  -------         PROC          _FUZZY_CONTRLLER_INIT
  D:0004H         SYMBOL        e_max
  X:0026H         SYMBOL        de_max
  X:002AH         SYMBOL        u_max
  C:14C0H         LINE#         29
  C:14C0H         LINE#         30
  C:14C0H         LINE#         31
  C:14C5H         LINE#         32
  C:14D7H         LINE#         33
  C:14E9H         LINE#         34
  C:14F2H         LINE#         35
  C:14FBH         LINE#         36
  C:1511H         LINE#         37
  C:151AH         LINE#         38
  C:1530H         LINE#         39
  C:1544H         LINE#         40
  C:1558H         LINE#         41
  -------         ENDPROC       _FUZZY_CONTRLLER_INIT
  -------         PROC          _TRIMF
  X:0041H         SYMBOL        x
  X:0045H         SYMBOL        a
  X:0049H         SYMBOL        b
  X:004DH         SYMBOL        c
  -------         DO            
  X:0051H         SYMBOL        u
  -------         ENDDO         
  C:11D8H         LINE#         46
  C:11DDH         LINE#         47
  C:11DDH         LINE#         49
  C:121FH         LINE#         50
  C:125EH         LINE#         51
  C:12A5H         LINE#         52
  C:1303H         LINE#         54
  C:130CH         LINE#         55
  C:1319H         LINE#         56
  -------         ENDPROC       _TRIMF
  -------         PROC          _REALIZE
  X:0022H         SYMBOL        t
  X:0026H         SYMBOL        a
  -------         DO            
  X:002AH         SYMBOL        i
  X:002BH         SYMBOL        m
  X:002CH         SYMBOL        n
  X:002DH         SYMBOL        j
  I:0022H         SYMBOL        u_e
  I:003EH         SYMBOL        u_de
  X:002EH         SYMBOL        u_e_index
  X:0031H         SYMBOL        u_de_index
  X:0034H         SYMBOL        M
  X:0035H         SYMBOL        u
  X:0039H         SYMBOL        den
BL51 BANKED LINKER/LOCATER V6.22                                                      03/28/2021  16:14:10  PAGE 20


  X:003DH         SYMBOL        num
  -------         ENDDO         
  C:0BBCH         LINE#         59
  C:0BC1H         LINE#         60
  C:0BC1H         LINE#         61
  C:0BC5H         LINE#         67
  C:0BD7H         LINE#         68
  C:0BE9H         LINE#         69
  C:0BFBH         LINE#         70
  C:0C11H         LINE#         71
  C:0C27H         LINE#         72
  C:0C39H         LINE#         73
  C:0C4BH         LINE#         74
  C:0C50H         LINE#         75
  C:0C54H         LINE#         76
  C:0C54H         LINE#         77
  C:0CD9H         LINE#         78
  C:0CEEH         LINE#         79
  C:0CFEH         LINE#         80
  C:0D0CH         LINE#         81
  C:0D22H         LINE#         82
  C:0D27H         LINE#         83
  C:0D2BH         LINE#         84
  C:0D2EH         LINE#         85
  C:0D2EH         LINE#         86
  C:0DB3H         LINE#         87
  C:0DC8H         LINE#         88
  C:0DD8H         LINE#         89
  C:0DE6H         LINE#         90
  C:0DEFH         LINE#         91
  C:0DFCH         LINE#         94
  C:0E00H         LINE#         95
  C:0E04H         LINE#         96
  C:0E04H         LINE#         97
  C:0E8EH         LINE#         98
  C:0ED9H         LINE#         99
  C:0EF3H         LINE#         100
  C:0F1AH         LINE#         101
  C:0F34H         LINE#         102
  C:0F4CH         LINE#         103
  C:0F53H         LINE#         104
  C:0F70H         LINE#         105
  C:0F7DH         LINE#         106
  C:0F87H         LINE#         107
  C:0F94H         LINE#         108
  -------         ENDPROC       _REALIZE
  -------         ENDMOD        FUZZY

  -------         MODULE        ?C?FPADD
  C:002DH         PUBLIC        ?C?FPADD
  C:0029H         PUBLIC        ?C?FPSUB
  -------         ENDMOD        ?C?FPADD

  -------         MODULE        ?C?FPMUL
  C:011EH         PUBLIC        ?C?FPMUL
  -------         ENDMOD        ?C?FPMUL

BL51 BANKED LINKER/LOCATER V6.22                                                      03/28/2021  16:14:10  PAGE 21


  -------         MODULE        ?C?FPDIV
  C:0227H         PUBLIC        ?C?FPDIV
  -------         ENDMOD        ?C?FPDIV

  -------         MODULE        ?C?FPCMP
  C:02C6H         PUBLIC        ?C?FPCMP
  C:02C4H         PUBLIC        ?C?FPCMP3
  -------         ENDMOD        ?C?FPCMP

  -------         MODULE        ?C?FPNEG
  C:033DH         PUBLIC        ?C?FPNEG
  -------         ENDMOD        ?C?FPNEG

  -------         MODULE        ?C?FCAST
  C:0358H         PUBLIC        ?C?FCASTC
  C:0353H         PUBLIC        ?C?FCASTI
  C:034EH         PUBLIC        ?C?FCASTL
  -------         ENDMOD        ?C?FCAST

  -------         MODULE        ?C?CASTF
  C:038CH         PUBLIC        ?C?CASTF
  -------         ENDMOD        ?C?CASTF

  -------         MODULE        PRINTF
  X:0022H         PUBLIC        ?_PRINTF?BYTE
  X:0022H         PUBLIC        ?_SPRINTF?BYTE
  C:07B0H         PUBLIC        _PRINTF
  C:07AAH         PUBLIC        _SPRINTF
  -------         ENDMOD        PRINTF

  -------         MODULE        FABS
  C:1A2DH         PUBLIC        _FABS
  -------         ENDMOD        FABS

  -------         MODULE        ?C?FPROUND
  C:040DH         PUBLIC        ?C?FPROUND
  -------         ENDMOD        ?C?FPROUND

  -------         MODULE        ?C?FPCONVERT
  C:043CH         PUBLIC        ?C?FPCONVERT
  -------         ENDMOD        ?C?FPCONVERT

  -------         MODULE        ?C?FTNPWR
  C:056FH         PUBLIC        ?C?FTNPWR
  -------         ENDMOD        ?C?FTNPWR

  -------         MODULE        ?C?CLDPTR
  C:05AFH         PUBLIC        ?C?CLDPTR
  -------         ENDMOD        ?C?CLDPTR

  -------         MODULE        ?C?CLDOPTR
  C:05C8H         PUBLIC        ?C?CLDOPTR
  -------         ENDMOD        ?C?CLDOPTR

  -------         MODULE        ?C?CSTPTR
  C:05F5H         PUBLIC        ?C?CSTPTR
  -------         ENDMOD        ?C?CSTPTR
BL51 BANKED LINKER/LOCATER V6.22                                                      03/28/2021  16:14:10  PAGE 22



  -------         MODULE        ?C?UIDIV
  C:0607H         PUBLIC        ?C?UIDIV
  -------         ENDMOD        ?C?UIDIV

  -------         MODULE        ?C?SIDIV
  C:065CH         PUBLIC        ?C?SIDIV
  -------         ENDMOD        ?C?SIDIV

  -------         MODULE        ?C?LNEG
  C:0692H         PUBLIC        ?C?LNEG
  -------         ENDMOD        ?C?LNEG

  -------         MODULE        ?C?LLDIDATA
  C:06A0H         PUBLIC        ?C?LLDIDATA
  -------         ENDMOD        ?C?LLDIDATA

  -------         MODULE        ?C?LLDIDATA0
  C:06ACH         PUBLIC        ?C?LLDIDATA0
  -------         ENDMOD        ?C?LLDIDATA0

  -------         MODULE        ?C?LSTIDATA
  C:06B9H         PUBLIC        ?C?LSTIDATA
  -------         ENDMOD        ?C?LSTIDATA

  -------         MODULE        ?C?LSTPDATA
  C:06C5H         PUBLIC        ?C?LSTPDATA
  -------         ENDMOD        ?C?LSTPDATA

  -------         MODULE        ?C?LSTKIDATA
  C:06D1H         PUBLIC        ?C?LSTKIDATA
  -------         ENDMOD        ?C?LSTKIDATA

  -------         MODULE        ?C?LSTKPDATA
  C:06EAH         PUBLIC        ?C?LSTKPDATA
  -------         ENDMOD        ?C?LSTKPDATA

  -------         MODULE        ?C?OFFXADD
  C:0703H         PUBLIC        ?C?OFFXADD
  -------         ENDMOD        ?C?OFFXADD

  -------         MODULE        ?C?PLDIPDATA
  C:070FH         PUBLIC        ?C?PLDIPDATA
  -------         ENDMOD        ?C?PLDIPDATA

  -------         MODULE        ?C?PSTPDATA
  C:071FH         PUBLIC        ?C?PSTPDATA
  -------         ENDMOD        ?C?PSTPDATA

  -------         MODULE        ?C?CCASE
  C:0728H         PUBLIC        ?C?CCASE
  -------         ENDMOD        ?C?CCASE

*** WARNING L16: UNCALLED SEGMENT, IGNORED FOR OVERLAY PROCESS
    SEGMENT: ?PR?DS18B20_GETTEMP?MAIN

*** WARNING L16: UNCALLED SEGMENT, IGNORED FOR OVERLAY PROCESS
BL51 BANKED LINKER/LOCATER V6.22                                                      03/28/2021  16:14:10  PAGE 23


    SEGMENT: ?PR?MOTORSTOP?MAIN

*** WARNING L16: UNCALLED SEGMENT, IGNORED FOR OVERLAY PROCESS
    SEGMENT: ?PR?_UART_SEND_STR?MAIN

*** WARNING L16: UNCALLED SEGMENT, IGNORED FOR OVERLAY PROCESS
    SEGMENT: ?PR?_UART1_SENDSTRING?MAIN

Program Size: data=115.7 xdata=91 code=6786
LINK/LOCATE RUN COMPLETE.  4 WARNING(S),  0 ERROR(S)
