C51 COMPILER V9.54   MAIN                                                                  03/28/2021 16:14:10 PAGE 1   


C51 COMPILER V9.54, COMPILATION OF MODULE MAIN
OBJECT MODULE PLACED IN .\Objects\main.obj
COMPILER INVOKED BY: D:\Keil_v5\C51\BIN\C51.EXE main.c COMPACT OPTIMIZE(8,SPEED) BROWSE DEBUG OBJECTEXTEND PRINT(.\Listi
                    -ngs\main.lst) OBJECT(.\Objects\main.obj)

line level    source

   1          /****************************************Copyright (c)****************************************************
   2           
   3          **--------------File Info---------------------------------------------------------------------------------
   4          ** File name: main
   5          ** Last modified Date: 2021-03-27
   6          ** Last Version: V1.0
   7          ** Descriptions: 汽车空调自动调温系统
   8          **--------------------------------------------------------------------------------------------------------
   9          ** Created by: 
  10          ** Created date: 2021-02-20
  11          ** Version: V1.0
  12          ** Descriptions: 按K3进入预期温度设定，按K1增加，K2减小
  13          **--------------------------------------------------------------------------------------------------------
             -*/
  14          #include <reg52.h>
  15          #include <intrins.h>
  16          #include "eeprom.h"
  17          #include "fuzzy.h"
  18          
  19          #define lcd1602data P2
  20          #define MOTOR_SPEED 4
  21          
  22          typedef unsigned char u8;
  23          typedef unsigned int u16;
  24          
  25          #define MotorData P1                      //步进电机控制接口定义
  26          u8 code phasecw[4] ={0x08,0x04,0x02,0x01};//正转 电机导通相序 D-C-B-A
  27          u8 code phaseccw[4]={0x01,0x02,0x04,0x08};//反转 电机导通相序 A-B-C-D
  28          
  29          
  30          sbit DHT11_DATA =P3^3;   //定义数据线
  31          u8 rec_dat[4];   //用于显示的接收数据数组
  32          
  33          sbit DS_Data=P0^3;
  34          sbit LCD_RESOLUTION=P3^4; //上电后拉低，用来设置lcd1602分辨率
  35          sbit E=P3^5;                      //设置液晶端口           使能信号
  36          sbit RW=P3^6;                 //读写选择  读：H/写：L
  37          sbit RS=P3^7;                 //数据命令选择  数据：H/命令：L
  38          
  39          
  40          sbit KEY1=P0^0;
  41          sbit KEY2=P0^1;
  42          sbit KEY3=P3^2;
  43          
  44          bit EX0_flag;
  45          
  46          int cur_temp;                           //当前温度
  47          u8 except_temp = 26;            //预期温度
  48          long unsigned int timeSlices_5ms;
  49          
  50          /*函数声明*/
  51          void lcdwrite_com(u8 datas);
  52          void lcdwrite_datas(u8 datas);
  53          void lcdinit(void);
C51 COMPILER V9.54   MAIN                                                                  03/28/2021 16:14:10 PAGE 2   

  54          void writebyte(u8 address,u8 datas);
  55          u8 readbyte(u8 address);
  56          void read_time(void);
  57          u8 key_scan(bit mode);
  58          void print_string(char* str);
  59          
  60          int DS18B20_GetTemp(void);
  61          void DS18B20_Change(void);
  62          
  63          void MotorCW(void);
  64          void MotorCCW(void);
  65          void MotorStop(void);
  66          void DelayMs(unsigned int i);
  67          void display_temp(void);
  68          void Ex0_Ini(void);
  69          void init_uart(void);
  70          void uart_send_byte(unsigned char dat);
  71          void DHT11_receive();
  72          
  73          /*程序入口*/
  74          int main(void)
  75          {
  76   1              bit start = 0;
  77   1              bit mode = 0;
  78   1              u16 i;
  79   1              u16 tmp;
  80   1              float target=30.0;
  81   1              float actual=20.0;
  82   1              float u=0.f;
  83   1              
  84   1              except_temp = byte_read(0x2600);   //从地址0x2600读取一个字节
  85   1              LCD_RESOLUTION = 0; //lcd1602分辨率设置
  86   1              lcdinit();                      //lcd1602初始化
  87   1              init_uart();
  88   1              KEY3 = 1;
  89   1              Ex0_Ini();
  90   1              Fuzzy_contrller_Init(30, 30, 3);
  91   1              DelayMs(1500);                                   //等待系统稳定
  92   1              printf("Program Starting...");
  93   1              while(1)
  94   1              {
  95   2                      if(EX0_flag)
  96   2                      {
  97   3                              EX0_flag = 0;
  98   3                              EX0 = 1;
  99   3                      }
 100   2                      DHT11_receive();
 101   2                      cur_temp = rec_dat[2]*10+rec_dat[3];
 102   2                      DS18B20_Change();                                       //开始转换
 103   2                      //cur_temp = DS18B20_GetTemp();         //得到的温度保存在temp中
 104   2                      display_temp();                                         //显示温度
 105   2                      
 106   2                      target = (float)except_temp;            //目标温度=预期温度
 107   2                      actual = (float)cur_temp/10;            //实际温度=当前温度
 108   2              
 109   2                      u = realize(target, actual);    
 110   2                      actual += u;
 111   2                      DelayMs(10);
 112   2                      if(u >= 0)
 113   2                      {       
 114   3                              tmp = u * 100;          
 115   3                              lcdwrite_com(0xC0+11);
C51 COMPILER V9.54   MAIN                                                                  03/28/2021 16:14:10 PAGE 3   

 116   3                              lcdwrite_datas('0'+ tmp/100);
 117   3                              lcdwrite_datas('.');
 118   3                              lcdwrite_datas('0'+tmp%10/10);
 119   3                              lcdwrite_datas('0'+tmp%10);
 120   3                      }
 121   2                      else
 122   2                      {
 123   3                              tmp = fabs(u) * 100;
 124   3                              lcdwrite_com(0xC0+11);
 125   3                              lcdwrite_datas('-');
 126   3                              lcdwrite_datas('0'+tmp/100);
 127   3                              lcdwrite_datas('.');
 128   3                              lcdwrite_datas('0'+tmp%10/10);
 129   3                              lcdwrite_datas('0'+tmp%10);     
 130   3                      }
 131   2              
 132   2                      if(u >= 0)
 133   2                      {
 134   3                              tmp = u * 50;
 135   3                              for(i = 0; i < tmp; i++)
 136   3                              {
 137   4                                      MotorCW();   //顺时针转动
 138   4                              }
 139   3                      }
 140   2                      else
 141   2                      {
 142   3                              tmp = fabs(u) * 50;
 143   3                              for(i = 0; i < tmp; i++)
 144   3                              {
 145   4                                      MotorCCW();   //逆时针转动
 146   4                              }
 147   3                      }
 148   2              }
 149   1      }
 150          
 151          void display_temp(void)
 152          {       
 153   1              lcdwrite_com(0x80);
 154   1      //      lcdwrite_datas('C');
 155   1      //      lcdwrite_datas('u');
 156   1      //      lcdwrite_datas('r'); //Cur == Current
 157   1      //      lcdwrite_datas(' ');
 158   1              lcdwrite_datas('T');
 159   1              lcdwrite_datas('e');
 160   1              lcdwrite_datas('m');
 161   1              lcdwrite_datas('p'); //Temp
 162   1              lcdwrite_datas('=');
 163   1              
 164   1              if(cur_temp < 0)                
 165   1              {               
 166   2                      lcdwrite_datas('-');    //显示负号
 167   2              }
 168   1              lcdwrite_datas('0'+ cur_temp / 100);            //显示十位
 169   1              lcdwrite_datas('0'+ cur_temp % 100 / 10);       //显示个位，减0x80是为了能显示小数点
 170   1              lcdwrite_datas('.');
 171   1              lcdwrite_datas('0'+ cur_temp % 10);             //显示小数位    
 172   1              lcdwrite_datas(0xdf);
 173   1              lcdwrite_datas('C');
 174   1              
 175   1              lcdwrite_com(0xC0);
 176   1              lcdwrite_datas('E');
 177   1              lcdwrite_datas('x');
C51 COMPILER V9.54   MAIN                                                                  03/28/2021 16:14:10 PAGE 4   

 178   1              lcdwrite_datas('c');
 179   1              lcdwrite_datas('e');
 180   1              lcdwrite_datas('p'); 
 181   1              lcdwrite_datas('t'); //Except
 182   1      //      lcdwrite_datas(' ');
 183   1      //      lcdwrite_datas('T');
 184   1      //      lcdwrite_datas('e');
 185   1      //      lcdwrite_datas('m');
 186   1      //      lcdwrite_datas('p'); //Temp     
 187   1              lcdwrite_datas('=');
 188   1              lcdwrite_datas('0' + except_temp / 10);
 189   1              lcdwrite_datas('0' + except_temp % 10);
 190   1              lcdwrite_datas(0xdf);
 191   1              lcdwrite_datas('C');
 192   1              
 193   1      }
 194          /*
 195          * 功  能：在11.0592M晶振下的延时时间为 1ms
 196          * 参  数：毫秒数
 197          * 返回值：无
 198          */
 199          void DelayMs(unsigned int i)
 200          {
 201   1              unsigned int j,k;
 202   1      
 203   1              for(j=i; j>0; j--)
 204   1                      for(k=114; k>0; k--);
 205   1      }
 206          
 207          void Ex0_Ini(void)
 208          {
 209   1              //中断允许寄存器IE
 210   1              EA = 1;  //开启总中断
 211   1              EX0 = 1;         //开启0号外部中断
 212   1              //控制寄存器TCON
 213   1              IT0 = 1;         //设置外部中断触发方式 
 214   1                               //0 - 低电平触发
 215   1                               //1 - 负跳变触发
 216   1      }
 217          void ex0_intr() interrupt 0 
 218          { 
 219   1              u8 key_value;
 220   1              EX0 = 0;
 221   1              if(!KEY3)                       //进入中断，判断按键按下
 222   1              {
 223   2                      DelayMs(10);    //延时消抖
 224   2                      while(!KEY3)    //松手检测
 225   2                      {
 226   3                              KEY3=1;
 227   3                      }
 228   2                      lcdwrite_com(0xC0+8);
 229   2                      lcdwrite_com(0x0f);                             //开关标                
 230   2                      do{
 231   3                              display_temp();
 232   3                              key_value = key_scan(0);
 233   3                              if(key_value == 1 || key_value == 2)
 234   3                              {
 235   4                                      if(key_value == 1)
 236   4                                      {
 237   5                                              except_temp++;                  //设置温度增加
 238   5                                      }
 239   4                                      else if(key_value == 2)
C51 COMPILER V9.54   MAIN                                                                  03/28/2021 16:14:10 PAGE 5   

 240   4                                      {
 241   5                                              except_temp--;                  //设置温度减小
 242   5                                      }
 243   4                                      
 244   4                                      if(except_temp < 16)
 245   4                                      {
 246   5                                              except_temp = 16;               //下限幅
 247   5                                      }
 248   4                                      if(except_temp > 30)
 249   4                                      {
 250   5                                              except_temp = 30;               //上限幅
 251   5                                      }
 252   4                                      SectorErase(0x2600);
 253   4                                      byte_write(0x2600, (uchar)except_temp);          //在地址为0x2600的内存写入一个字节
 254   4                              }                       
 255   3                      }while(key_value != 3);
 256   2                      
 257   2                      lcdwrite_com(0x0c);                             //关关标
 258   2                      lcdwrite_com(0x01);
 259   2                      lcdwrite_com(0x08);
 260   2                      print_string("Set Successfully");
 261   2                      DelayMs(1000);  
 262   2                      lcdwrite_com(0x01);
 263   2                      KEY3=1;
 264   2                      EX0_flag = 1;
 265   2                      EX0 = 1;
 266   2              }
 267   1      }
 268          u8 key_scan(bit mode)
 269          {
 270   1              static bit key_up = 1;
 271   1              
 272   1              if(mode)
 273   1              {
 274   2                      key_up = 1;
 275   2              }
 276   1              if(key_up && (KEY1 == 0 || KEY2 == 0 || KEY3 == 0))
 277   1              {
 278   2                      DelayMs(10);
 279   2                      key_up = 0;
 280   2                      if(KEY1 == 0) return 1;
 281   2                      else if(KEY2 == 0) return 2;
 282   2                      else if(KEY3 == 0) return 3;
 283   2              }
 284   1              else if(KEY1 == 1 && KEY2 == 1 && KEY3 == 1)
 285   1              {
 286   2                      key_up = 1;
 287   2              }
 288   1              
 289   1              return 0;
 290   1      }
 291          
 292          
 293          /*******************************************************************************
 294          ** name: LCD1602字符串显示函数
 295          ** Paramter: 要写入的字符串
 296          ** retval:   无
 297          ** description: LCD1602显示一个字符串
 298          ** 
 299          ********************************************************************************/ 
 300          void print_string(char* str)
 301          {
C51 COMPILER V9.54   MAIN                                                                  03/28/2021 16:14:10 PAGE 6   

 302   1              int i;
 303   1              for(i=0;str[i]!=0;i++)
 304   1              {       
 305   2                      lcdwrite_datas(str[i]);
 306   2              }
 307   1      }
 308          
 309          void lcdwrite_com(u8 datas)                      //lcd液晶写入指令操作        模拟时序
 310          {
 311   1              E=0;
 312   1              RW=0;
 313   1              RS=0;
 314   1      
 315   1              lcd1602data=datas;
 316   1              DelayMs(1);
 317   1      
 318   1              E=1;
 319   1              //DelayMs(1);
 320   1              E=0;
 321   1              
 322   1      }
 323          
 324          void lcdwrite_datas(u8 datas)            //lcd液晶写入数据操作
 325          {
 326   1              E=0;
 327   1              RW=0;
 328   1              RS=1;
 329   1      
 330   1              lcd1602data=datas;
 331   1              DelayMs(1);                                //延时不能太长否则调整不灵敏
 332   1      
 333   1              E=1;
 334   1              //DelayMs(1);
 335   1              E=0;
 336   1              
 337   1      }
 338          
 339          void lcdinit(void)                                               //LCD液晶初始化
 340          {
 341   1              lcdwrite_com(0x38);                             //8位总线，显示两行，5x7点阵
 342   1              lcdwrite_com(0x0c);                             //开显示功能，无关标
 343   1              lcdwrite_com(0x06);                             //光标右移，即数据依次右移
 344   1              lcdwrite_com(0x01);                             //清屏
 345   1              lcdwrite_com(0x80);                             //第一个数据位置
 346   1              
 347   1      }
 348          
 349          
 350          /*
 351          * 功  能：DS18B20 复位
 352          * 参  数：无
 353          * 返回值：无
 354          */
 355          void DS18B20_Reset(void)
 356          {
 357   1              unsigned int i;
 358   1      
 359   1              DS_Data = 0;
 360   1              i = 103;
 361   1              while(i>0)      i--;
 362   1      
 363   1              DS_Data = 1;
C51 COMPILER V9.54   MAIN                                                                  03/28/2021 16:14:10 PAGE 7   

 364   1              i = 4;
 365   1              while(i>0)      i--;
 366   1      }
 367          
 368          /*
 369          * 功  能：DS18B20 读取一位数据
 370          * 参  数：无
 371          * 返回值：读取的位
 372          */
 373          bit DS18B20_ReadBit(void)       
 374          {
 375   1              unsigned int i;
 376   1              bit dat;
 377   1      
 378   1              DS_Data = 0;
 379   1              i++;
 380   1              DS_Data = 1;
 381   1              i++;
 382   1              i++;
 383   1              dat = DS_Data;
 384   1      
 385   1              i = 8;
 386   1              while(i>0)      i--;
 387   1      
 388   1              return (dat);
 389   1      }
 390          
 391          /*
 392          * 功  能：DS18B20 读取一个字节
 393          * 参  数：无
 394          * 返回值：读取的字节
 395          */
 396          u8 DS18B20_ReadByte(void)       
 397          {
 398   1              unsigned char i,j,dat;
 399   1              
 400   1              dat=0;
 401   1              for(i=1; i<=8; i++)
 402   1              {
 403   2                      j = DS18B20_ReadBit();
 404   2                      dat=(j<<7)|(dat>>1);   //读出的数据最低位在最前面，这样刚好一个字节在DAT里
 405   2              }
 406   1      
 407   1              return(dat);
 408   1      }
 409          
 410          /*
 411          * 功  能：DS18B20 写入一个字节
 412          * 参  数：要写入的字节
 413          * 返回值：无
 414          */
 415          void DS18B20_WriteByte(unsigned char dat)       
 416          {
 417   1              unsigned int i;
 418   1              unsigned char j, k;
 419   1              bit b;
 420   1      
 421   1              k = dat;
 422   1      
 423   1              for(j=1; j<=8; j++)
 424   1              {
 425   2                      b = k & 0x01;
C51 COMPILER V9.54   MAIN                                                                  03/28/2021 16:14:10 PAGE 8   

 426   2                      k = k >> 1;
 427   2                      if(b)                                   //write 1
 428   2                      {
 429   3                              DS_Data = 0;
 430   3                              i++; i++;
 431   3                              DS_Data = 1;
 432   3                              i = 8;
 433   3                              while(i>0) i--;
 434   3                      }
 435   2                      else
 436   2                      {
 437   3                              DS_Data = 0;                    //write 0
 438   3                              i = 8;
 439   3                              while(i>0)      i--;
 440   3                              DS_Data = 1;
 441   3                              i++; i++;
 442   3                      }
 443   2              
 444   2              }
 445   1      }
 446          
 447          /*
 448          * 功  能：DS18B20 开始温度转换
 449          * 参  数：无
 450          * 返回值：无
 451          */
 452          void DS18B20_Change(void)       
 453          {
 454   1              DS18B20_Reset();
 455   1              DelayMs(5);
 456   1              DS18B20_WriteByte(0xcc);         // address all drivers on bus
 457   1              DS18B20_WriteByte(0x44);        //  initiates a single temperature conversion  
 458   1      }
 459          
 460          /*
 461          * 功  能：DS18B20 得到温度值
 462          * 参  数：无
 463          * 返回值：无
 464          */
 465          int DS18B20_GetTemp(void)                       //get the temperature
 466          {
 467   1              float t;
 468   1              unsigned char a, b;
 469   1              int temp;
 470   1              
 471   1              DS18B20_Reset();
 472   1              DelayMs(5);
 473   1              DS18B20_WriteByte(0xcc);
 474   1              DS18B20_WriteByte(0xbe);
 475   1              a=DS18B20_ReadByte();
 476   1              b=DS18B20_ReadByte();
 477   1              
 478   1              temp = b;
 479   1              temp <<= 8;                             //two byte  compose a int variable
 480   1              temp = temp|a;
 481   1              t = temp*0.0625;
 482   1              temp = t*10+0.5;
 483   1              
 484   1              return temp;
 485   1      }
 486          
 487          
C51 COMPILER V9.54   MAIN                                                                  03/28/2021 16:14:10 PAGE 9   

 488          //顺时针转动
 489          void MotorCW(void)
 490          {
 491   1              u8 i;
 492   1              for(i=0;i<4;i++)
 493   1              {
 494   2                      MotorData=phasecw[i];
 495   2                      DelayMs(MOTOR_SPEED);//转速调节
 496   2              }
 497   1      }
 498          //逆时针转动
 499          void MotorCCW(void)
 500          {
 501   1              u8 i;
 502   1              for(i=0;i<4;i++)
 503   1              {
 504   2                      MotorData=phaseccw[i];
 505   2                      DelayMs(MOTOR_SPEED);//转速调节
 506   2              }
 507   1      }
 508          //停止转动
 509          void MotorStop(void)
 510          {
 511   1              MotorData=0x00;
 512   1      }
 513          
 514          /*******************************************************************************
 515          ** name: 串口中断函数
 516          ** Paramter: 无
 517          ** retval:   无
 518          ** description: 接收串口数据，产生串口接收中断
 519          ** 
 520          ********************************************************************************/
 521          void uart_interrupt(void) interrupt 4   
 522          {
 523   1              if(RI) //接收数据(1字节)完毕，RI会被硬件置1
 524   1              {
 525   2      //              RI = 0;                                         // 将接收中断标志位，清零(让串口可以继续接收数据)
 526   2      //              recv_data = SBUF;               // 读取接收到的数据，并存放到recv_data
 527   2              }
 528   1              
 529   1      #if 0 //串口发送使用查询的方式，这里不使用
                      if(TI)// 发送数据(1字节)完毕
                      {
                              TI = 0;// 将发送中断标志位清零(让串口可以继续发送数据)
                      }
              #endif
 535   1      }
 536          
 537          
 538          /*******************************************************************************
 539          ** name: 串口初始化函数
 540          ** Paramter: 无
 541          ** retval:   无
 542          ** description: 初始化串口
 543          ** 
 544          ********************************************************************************/
 545          void init_uart(void)
 546          {
 547   1              SCON = 0x50;                  // SCON: 方式 1, 8-bit, 允许接收数据 
 548   1              TMOD |= 0x20;             // TMOD: 设置定时器1工作在方式2, 8-bit 自动重装
 549   1              TH1 = 0xFD;               // TH1:  初始值为0xFD  波特率：9600 晶振频率：11.0592MHz  
C51 COMPILER V9.54   MAIN                                                                  03/28/2021 16:14:10 PAGE 10  

 550   1              TL1 = 0x0;
 551   1              TR1 = 1;                  // TR1:  开启定时器1                         
 552   1              EA  = 1;                  //打开总中断
 553   1              ES  = 1;                  //打开串口中断
 554   1      }       
 555                   
 556          /*******************************************************************************
 557          ** name: 发送一字节
 558          ** Paramter: 要发送的一字节数据
 559          ** retval:   无
 560          ** description: 使用串口发送一字节数据
 561          ** 
 562          ********************************************************************************/
 563          void uart_send_byte(unsigned char dat)
 564          {
 565   1              SBUF = dat; // 将数据送到发送缓冲寄存器SBUF，一位一位的发送
 566   1              while(!TI); // 等待发送完毕 (发送完毕TI硬件置1)
 567   1              TI = 0;// 将TI清零，表示可以发送下一字节数据。
 568   1      }
 569          
 570          /*******************************************************************************
 571          ** name: 发送字符串
 572          ** Paramter: 要发送的字符串
 573          ** retval:   无
 574          ** description: 使用串口发送一个字符串
 575          ** 
 576          ********************************************************************************/
 577          void uart_send_str(unsigned char *s)
 578          {
 579   1              while(*s != '\0')// '\0':字符串结束标志
 580   1              {
 581   2                      uart_send_byte(*s);// 发送1个字节数据，1个字符占8位，1字节
 582   2                      s++;// 指向下一个字符
 583   2              }
 584   1      }
 585          
 586          //UART1 发送串口数据
 587          void UART1_SendData(char dat)
 588          {
 589   1          ES=0;           //关串口中断
 590   1          SBUF=dat;           
 591   1          while(TI!=1);   //等待发送成功
 592   1          TI=0;           //清除发送中断标志
 593   1          ES=1;           //开串口中断
 594   1      }
 595           
 596          //UART1 发送字符串
 597          void UART1_SendString(char *s)
 598          {
 599   1          while(*s)//检测字符串结束符
 600   1          {
 601   2              UART1_SendData(*s++);//发送当前字符
 602   2          }
 603   1      }
 604           
 605          //重写putchar函数
 606          char putchar(char c)
 607          {
 608   1          UART1_SendData(c);
 609   1          return c;
 610   1      }
 611          
C51 COMPILER V9.54   MAIN                                                                  03/28/2021 16:14:10 PAGE 11  

 612          void DHT11_delay_us(u8 n)
 613          {
 614   1          while(--n);
 615   1      }
 616          
 617          void DHT11_delay_ms(u8 z)
 618          {
 619   1         uint i,j;
 620   1         for(i=z;i>0;i--)
 621   1            for(j=110;j>0;j--);
 622   1      }
 623          
 624          void DHT11_start()
 625          {
 626   1         DHT11_DATA=1;
 627   1         DHT11_delay_us(2);
 628   1         DHT11_DATA=0;
 629   1         DHT11_delay_ms(20);   //延时18ms以上
 630   1         DHT11_DATA=1;
 631   1         DHT11_delay_us(30);
 632   1      }
 633          
 634          u8 DHT11_rec_byte()      //接收一个字节
 635          {
 636   1         u8 i,dat=0;
 637   1         for(i=0;i<8;i++)    //从高到低依次接收8位数据
 638   1         {          
 639   2            while(!DHT11_DATA);   //等待50us低电平过去
 640   2            DHT11_delay_us(8);     //延时60us，如果还为高则数据为1，否则为0 
 641   2            dat<<=1;           //移位使正确接收8位数据，数据为0时直接移位
 642   2            if(DHT11_DATA==1)    //数据为1时，使dat加1来接收数据1
 643   2               dat+=1;
 644   2            while(DHT11_DATA);  //等待数据线拉低    
 645   2          }  
 646   1          return dat;
 647   1      }
 648          
 649          void DHT11_receive()      //接收40位的数据
 650          {
 651   1          u8 R_H,R_L,T_H,T_L,revise; 
 652   1          DHT11_start();
 653   1          if(DHT11_DATA==0)
 654   1          {
 655   2              while(DHT11_DATA==0);   //等待拉高     
 656   2              DHT11_delay_us(40);  //拉高后延时80us
 657   2              R_H=DHT11_rec_byte();    //接收湿度高八位  
 658   2              R_L=DHT11_rec_byte();    //接收湿度低八位  
 659   2              T_H=DHT11_rec_byte();    //接收温度高八位  
 660   2              T_L=DHT11_rec_byte();    //接收温度低八位
 661   2              revise=DHT11_rec_byte(); //接收校正位
 662   2      
 663   2              DHT11_delay_us(25);    //结束
 664   2      
 665   2              if((R_H+R_L+T_H+T_L)==revise)      //校正
 666   2              {
 667   3                  rec_dat[0]=R_H;
 668   3                  rec_dat[1]=R_L;
 669   3                  rec_dat[2]=T_H;
 670   3                  rec_dat[3]=T_L;
 671   3              } 
 672   2          }
 673   1      }
C51 COMPILER V9.54   MAIN                                                                  03/28/2021 16:14:10 PAGE 12  



MODULE INFORMATION:   STATIC OVERLAYABLE
   CODE SIZE        =   1866    ----
   CONSTANT SIZE    =     45    ----
   XDATA SIZE       =   ----    ----
   PDATA SIZE       =     11      31
   DATA SIZE        =   ----    ----
   IDATA SIZE       =   ----    ----
   BIT SIZE         =      2       5
END OF MODULE INFORMATION.


C51 COMPILATION COMPLETE.  0 WARNING(S),  0 ERROR(S)
