:0300000002157076
:0C157000787FE4F6D8FD7581850215B780
:1018390050726F6772616D205374617274696E675B
:101849002E2E2E005365742053756363657373667A
:0D185900756C6C790008040201010204089E
:051A7600810B1AC18C78
:100F9500C200C20178161206EA41F00000781A1262
:100FA50006EA41A00000781E1206EA000000007F54
:100FB500007E2612196C780BEFF2C2B41219861254
:100FC50019F4D2B2121A6978261206EA41F0000025
:100FD500782A1206EA404000007F007E007DF07C02
:100FE500411214C07FDC7E051218B17BFF7A187997
:100FF500391207B0300D04C20DD2A8121688780E2A
:10100500E275F00AA4FFAEF008E27C002F7811F239
:10101500EC3E18F2121A511213F2780BE2FCE412AC
:10102500035878161206C57810E2FC08E2FDEC12AA
:101035000353E4FBFA79207841120227781A120645
:10104500C5781AE2FC08E2FD08E2FE08E2FF782610
:101055001206C57816E2FC08E2FD08E2FE08E2FF8A
:10106500120BBC781E1206C5781AE2FC08E2FD08D0
:10107500E2FE08E2FF08E2FB08E2F908E2FA08E20C
:10108500CBF812002D781A1206C51218ADE4FFFE32
:10109500FDFC781EE2FB08E2F908E2FA08E2CBF86B
:1010A5001202C4401AE4FFFE7DC87C42781EE2FBB2
:1010B50008E2F908E2FA08E2CBF812188A801F78EC
:1010C5001EE2FC08E2FD08E2FE08E2FF121A2DE42A
:1010D500FBFA79C8784212188A7F2D12000D781410
:1010E500E2FE08E2FF7C007D641200067F2E1200FE
:1010F5000D7814E2FE08E2FF7C007D0A1206077EE9
:10110500007F0ACFCDCFCECCCE1200067814E2FEFA
:1011150008E2FF7C007D0A120607ED2430FF12006D
:101125000DE4FFFEFDFC781EE2FB08E2F908E2FA99
:1011350008E2CBF81202C4404CE4FFFE7D487C4235
:10114500781EE2FB08E2F908E2FA08E2CBF81201A0
:101155001E12038C7814EEF208EFF2E47812F2080E
:10116500F27814E2FE08E2FFC37813E29F18E29ECC
:101175004003020FF912199F7813E22401F218E2D5
:101185003400F280DC781EE2FC08E2FD08E2FE088D
:10119500E2FF121A2DE4FBFA7948784212011E1279
:1011A500038C7814EEF208EFF2E47812F208F27884
:1011B50014E2FE08E2FFC37813E29F18E29E4003A3
:1011C500020FF91219B57813E22401F218E234007E
:0311D500F280DCC9
:1013F2007F801218997F5412000D7F6512000D7FB5
:101402006D12000D7F7012000D7F3D12000DC3782A
:1014120010E26480948050057F2D12000D7810E256
:10142200FE08E2FF7C007D6412065C12000978105F
:10143200E2FE08E2FF7C007D6412065C7E007F0A09
:10144200CFCDCFCECCCE12065C1200097F2E120079
:101452000D7810E2FE08E2FF7C007D0A12065CEDC8
:101462002430FF12000D7FDF12000D7F4312000DAA
:101472007FC01218997F4512000D7F7812000D7FF0
:101482006312000D7F6512000D7F7012000D7F74D4
:1014920012000D7F3D12000D780BE275F00A8424D4
:1014A20030FF12000D780BE275F00A84E5F024306B
:0E14B200FF12000D7FDF12000D7F4302000DC0
:0418AD007F0A7E0030
:1018B100D3EF9400EE940040147D727C00ED1D7016
:0D18C100011CED4C70F7EF1F70E61E80E378
:0118CE0022F7
:071A6900D2AFD2A8D28822FF
:0300030002131ACB
:10131A00C0E0C0F0C083C082C0D075D000C000C099
:0D132A0001C002C003C004C005C006C0071A
:10133700C2A830B2030213D71218AD20B204D2B23A
:1013470080F97FC81218997F0F1218991213F2C2E9
:101357000B1217CF7855EFF264016005E264027053
:101367003F7855E2FFB40107780BE204F28009EFFA
:10137700B40205780BE214F2780BE2C39410500321
:101387007410F2780BE2D3941E4003741EF27F00B0
:101397007E26121A1A780BE2FD7F007E261218CFDE
:1013A7007855E2B403A67F0C1218997F0112189999
:1013B7007F081218997BFF7A18794D1217967FE8E4
:1013C7007E031218B17F01121899D2B2D20DD2A89A
:1013D700D007D006D005D004D003D002D001D0006A
:0B13E700D0D0D082D083D0F0D0E03214
:1017CF00300B02D20C300C2030800630810320B257
:1017DF00171218ADC20C2080037F01222081037FD6
:1017EF00022220B20E7F032230800830810530B2F2
:0517FF0002D20C7F0086
:0118040022C1
:0A1796007856EBF208EAF208E9F2D7
:1017A000E408F208F27856E2FB08E2FA08E2F908E7
:1017B000E2FE08E2F5828E831205C8FF6010120077
:0E17C0000D785AE22401F218E23400F280D7CC
:0117CE0022F8
:0F188A0012011E12038C7814EEF208EFF27FCBDE
:10189900C2B5C2B6C2B78FA07F017E001218B1D2FD
:0418A900B5C2B522ED
:07000600120607EF2430FF92
:10000D00C2B5C2B6D2B78FA07F017E001218B1D291
:04001D00B5C2B52291
:101986007F381218997F0C1218997F061218997FC2
:09199600011218997F80021899D2
:10191100C2837F677E00EF1F70011EEF4E70F7D20A
:0E192100837E007F04EF1F70011EEF4E70F7F3
:01192F002295
:10186600C2830FBF0000D2830FBF00000FBF00006E
:10187600A283920E7E007F08EF1F70011EEF4E704E
:03188600F7A20EB8
:01188900223C
:10193000E4FD7C01121866E433FFC4333333548072
:0D194000FEEDC3134EFD0CECB409E9AF053C
:01194D002277
:0C16F0001219117F057E001218B17FCC8A
:1016FC00A9077F01E9139202E9C313F930021BC257
:10170C00830BBB00000BBB0000D2837A007B08EB81
:10171C001B70011AEB4A70F7801BC2837A007B089E
:10172C00EB1B70011AEB4A70F7D2830BBB00010A5A
:0A173C000BBB00010A0FEFB409BA5D
:011746002280
:081A51001216F07F440216FC9E
:101747001216F07FBE1216FC121930AB07121930B1
:10175700EFFEEBFFFDAC06EC120353E4FBFA7980D6
:10176700783D12011E78001206C5E4FFFE7D207C3D
:10177700417800E2FB08E2F908E2FA08E2CBF81246
:0E178700011EE4FBFAF9783F12002D12038CCC
:011795002231
:10199F00E4FBEB90185E93F5907F047E001218B174
:0519AF000BEBB404ED98
:0119B4002210
:1019B500E4FBEB90186293F5907F047E001218B15A
:0519C5000BEBB404ED82
:0119CA0022FA
:041A7C00E4F59022DB
:03002300020021B7
:0100210032AC
:1019F400759850438920758DFDE4F58BD28ED2AF56
:031A0400D2AC223F
:081A59008F993099FDC299221A
:101A07001205AFFF600C121A59740129F9E43AFA6A
:031A170080EE223C
:0C1A3A00C2AC8F993099FDC299D2AC2249
:101805007804EBF208EAF208E9F27804E2FB08E270
:10181500FA08E2F91205AF601A7804E2FB0808E25B
:10182500F92401F218E2FA3400F21205AFFF121A98
:041835003A80D722FC
:061A7000AE07121A3A2233
:031A8000DFFE2264
:1018F1007E00D3EF9400EE940040147D6E7C00EDE9
:0F1901001D70011CED4C70F7EF1F70E61E80E3A8
:0119100022B4
:1019CB00D2B37F02121A80C2B37F141218F1D2B3B2
:0519DB007F1E021A80CE
:10194E00E4FEFD30B3FD7F08121A80EE25E0FE3076
:0D195E00B3010E20B3FD0DEDB408E8AF0697
:01196B002259
:101688001219CB20B36130B3FD7F28121A801219CA
:101698004E7822EFF212194EA90712194EAC071212
:1016A800194EAB0712194E08EFF27F19121A80E98A
:1016B800FF18E22FFFE433FEEC7583002FFFE5836C
:1016C8003EFEEB2FFFE5833EFE08E2B50719E583F2
:1016D800B5061418E2780CF2AF0108EFF2AF04086F
:0716E800EFF2AF0308EFF27F
:0116EF0022D8
:0819E000C2AFECF5E3EDF5E404
:0C19E800C2AF53E71843E70143E7802239
:0B1A460053E77FE4F5E5F5E6D2AF22A0
:081A610075E64675E6B90022A6
:04196C00AD07AC0611
:10197000E4FF1219E053E5F843E501121A61AFE202
:05198000121A46D2AF6F
:01198500223F
:1018CF00AB07AA06C2AFEAF5E3EBF5E41219E8534A
:1018DF00E5F843E502AF058FE2121A61121A46D2FC
:0218EF00AF2226
:101A1A00AD07AC061219E053E5F843E503121A6163
:031A2A00021A4657
:1015FC00FFFDFFFDFFFEFFFEFFFF00000000FFFDF3
:10160C00FFFDFFFEFFFFFFFF00000001FFFEFFFEDE
:10161C00FFFEFFFF000000010001FFFEFFFEFFFFC9
:10162C000000000100020002FFFFFFFF00000001AC
:10163C00000100020002FFFF000000010002000296
:10164C000002000300000000000200020002000380
:10165C000003FFFDFFFDFFFEFFFDFFFEFFFFFFFE92
:10166C00FFFF0000FFFF000000010000000100026E
:0C167C0000010002000300020003000354
:1014C000786A1206B97826E2FC08E2FD08E2FE0816
:1014D000E2FF78621206B9782AE2FC08E2FD08E22F
:1014E000FE08E2FF78721206B9785A1206D100009F
:1014F000000078821206D10000000078821206AC4B
:10150000C000785A1206A0D000120029787E120678
:10151000B9785E1206D100000000785E1206ACC0F9
:1015200000787E1206A0D000120029787A1206B93F
:10153000786A1206ACE4FFFE7D407C4012022778F8
:101540006E1206B978621206ACE4FFFE7D407C4064
:1015500012022778661206B9E4FBFA79407840C097
:101560000078721206A0D00012022778760206B91F
:0511D80078411206C57C
:1011DD007845E2FC08E2FD08E2FE08E2FF7841E214
:1011ED00FB08E2F908E2FA08E2CBF81202C440610A
:1011FD007849E2FC08E2FD08E2FE08E2FF7841E2F0
:10120D00FB08E2F908E2FA08E2CBF81202C4600228
:10121D00503F7845E2FB08E2F908E2FA08E2CBF824
:10122D00C0007849E2FC08E2FD08E2FE08E2FFD0CA
:10123D0000120029C004C005C006C0077845E2FBB6
:10124D0008E2F908E2FA08E2CBF8C0007841021290
:10125D00E17849E2FC08E2FD08E2FE08E2FF784190
:10126D00E2FB08E2F908E2FA08E2CBF81202C460E8
:10127D00025003021303784DE2FC08E2FD08E2FE82
:10128D0008E2FF7841E2FB08E2F908E2FA08E2CB56
:10129D00F81202C46002505E7849E2FB08E2F908D8
:1012AD00E2FA08E2CBF8C000784DE2FC08E2FD0856
:1012BD00E2FE08E2FFD000120029C004C005C006FE
:1012CD00C0077841E2FB08E2F908E2FA08E2CBF840
:1012DD00C000784DE2FC08E2FD08E2FE08E2FFD016
:1012ED0000120029D003D002D001D00012022778BD
:1012FD00511206C5800978511206EA0000000078E7
:0C130D0051E2FC08E2FD08E2FE08E2FFED
:0113190022B1
:050BBC0078221206C5BD
:100BC100E4782DF278391206EA00000000783D122F
:100BD10006EA000000007822E2FC08E2FD08E2FEDD
:100BE10008E2FF785A1206B97826E2FC08E2FD080D
:100BF100E2FE08E2FF78821206B978821206ACC0E2
:100C010000785A1206A0D000120029787E1206B987
:100C1100785E1206ACC000787E1206A0D0001200E9
:100C210029787A1206B9787E1206A0786E1206AC7F
:100C310012011E787E1206B9787A1206A078661221
:100C410006AC12011E787A1206B978347403F2E404
:100C5100782AF27834E2FF782AE28FF0A425E024A2
:100C61005EF582E43416F583E493FC740193FDECA4
:100C710012035378451206C57834E2FF782AE28FD1
:100C8100F0A425E02460F582E43416F583E493FCB6
:100C9100740193FDEC12035378491206C57834E2CE
:100CA100FF782AE28FF0A425E02462F582E434166D
:100CB100F583E493FC740193FDEC120353784D1218
:100CC10006C5787E1206A01211D8782AE2FB25E02B
:100CD10025E02422F81206B9EB25E025E02422F8CC
:100CE1001206A0E4FBFAF9F81202C46010782AE2B5
:100CF100FF782DE2FE04F2742E2EF8EFF2782AE24C
:100D010004F2E2C394075003020C54782DE2FFC3AE
:100D11009403500D742E2FF8E4F2782DE204F28042
:100D2100EA78347403F2E4782DF2782AF27834E226
:100D3100FF782AE28FF0A425E0245EF582E43416E0
:100D4100F583E493FC740193FDEC1203537845128F
:100D510006C57834E2FF782AE28FF0A425E024600A
:100D6100F582E43416F583E493FC740193FDEC12EF
:100D7100035378491206C57834E2FF782AE28FF0EE
:100D8100A425E02462F582E43416F583E493FC742F
:100D91000193FDEC120353784D1206C5787A1206C1
:100DA100A01211D8782AE2FB25E025E0243EF812B2
:100DB10006B9EB25E025E0243EF81206A0E4FBFA93
:100DC100F9F81202C46010782AE2FF782DE2FE04DD
:100DD100F274312EF8EFF2782AE204F2E2C39407BA
:100DE1005003020D2E782DE2FFC39403500D743190
:100DF1002FF8E4F2782DE204F280EAE4782BF2E4B1
:100E0100782CF2783DE2FB08E2F908E2FA08E2CB3D
:100E1100F8C000C001C002C003782CE22431F8E21E
:100E210025E025E0243EF81206A0782BE2242EF8D6
:100E3100E225E025E02422F81206AC12011EC004CE
:100E4100C005C006C007782BE2242EF8E275F00E2B
:100E5100A424FCF582E43415F583782CE22431F8DE
:100E6100E275F002120703E493FC740193FDEC12A6
:100E71000353D003D002D001D00012011ED003D001
:100E810002D001D00012002D783D1206C57839E25A
:100E9100FB08E2F908E2FA08E2CBF8C000C001C0A1
:100EA10002C003782CE22431F8E225E025E0243E5B
:100EB100F81206A0782BE2242EF8E225E025E024A2
:100EC10022F81206AC12011ED003D002D001D000CC
:100ED10012002D78391206C5782CE204F2E264037F
:100EE1006003020E04782BE204F2E2640360030261
:100EF1000E007839E2FB08E2F908E2FA08E2CBF8E1
:100F0100C000783DE2FC08E2FD08E2FE08E2FFD005
:100F11000012022778351206C57835E2FC08E2FD99
:100F210008E2FE08E2FF78761206AC12011E78355F
:100F31001206C578721206A07835E2FB08E2F908BC
:100F4100E2FA08E2CBF81202C4400778721206A056
:100F5100802578721206A012033D7835E2FB08E283
:100F6100F908E2FA08E2CBF81202C46002500D78E7
:100F7100721206A012033D78351206C5787E12065C
:100F8100A0785E1206B97835E2FC08E2FD08E2FEBF
:030F910008E2FF74
:010F9400223A
:100026000203F8E86480F8E933E83360110460F00D
:10003600ED33EC337009E8FCE9FDEAFEEBFF220440
:1000460060DED3EB9FEA9EE99DE8C2E78CF0C2F73B
:1000560095F0400CE8CCF8E9CDF9EACEFAEBCFFB07
:100066001203C385D0F05804700320D5B3E804709A
:10007600075002B2D502040292D5EC0460F7E4CC34
:10008600C0E0C398F8603B94186008400DD0E0FBD0
:100096000203DAE4FBFAC9FC8028E830E406E4C986
:1000A600FBE4CAFCE830E305E4C9CACBFCE8540724
:1000B6006010F8C3E913F9EA13FAEB13FBEC13FC2F
:1000C600D8F130F52FC3E49CFCEF9BFFEE9AFEEDD2
:1000D60099FDD0E0FBEF4E4D4C701222DB0302037C
:1000E600FFEC2CFCEF33FFEE33FEED33FDED30E796
:1000F600EB0203DAEF2BFFEE3AFEED39FDD0E0FB23
:1001060050130BBB0003020402ED13FDEE13FEEFCA
:0801160013FFEC13FC0203DAF5
:10011E00EC4D6011E8497017ED33EC3304600DE4DB
:10012E00FCFFFEFD22E933E8330470F80203F812F7
:10013E0003C358046009E4CC2481500628500902F8
:10014E0004022840030203FFC0E0EB4A7044B9806A
:10015E0006D0E0FB0203EEEF4E701CBD8008EBFFF5
:10016E00EAFEE9FD80EBE98DF0A4FEE5F002020760
:10017E00E9CDF9EAFEEBFFEF89F0A4FCE5F0CE89BC
:10018E00F0A42EFFE435F0CD89F0A42DFEE435F079
:10019E008067EF4E7005BD80D780C3EF8BF0A4ACA7
:1001AE00F0EE8BF0A42CFCE435F0F8EF8AF0A42CE2
:1001BE00E5F038FCE433CB8DF0A42CFCE5F03BF8F5
:1001CE00EE8AF0A42CFCE5F038F8E433CF89F0A4E5
:1001DE002CFCE5F038CF3400CE89F0A42FFFE5F0EB
:1001EE003EFEE433C98DF0A42EFEE5F039CD8AF043
:1001FE00A42FFFE5F03EFEE43DFD33D0E0FB5007BB
:10020E000BBB000F020402EC2CFCEF33FFEE33FEAF
:06021E00ED33FD0203DADE
:10022400020402EC5D046005E8590470030203F85B
:100234001203C3580460F6EC4860F2EC7004FDFE4F
:10024400FF22C860DB2481C85009C39860025006AD
:100254000203FF9850CAF582E9294B4A7005AB8224
:100264000203EE75F0007C1A7880C3EF9BEE9AEDE2
:1002740099400DC3EF9BFFEE9AFEED99FDE842F025
:10028400DC23ACF0D0E0FFD0E0FED0E0FDAB822078
:10029400E7101BEB60BAEC2CFCEF33FFEE33FEED02
:1002A40033FD0203DAE803F830E705C0F075F00027
:1002B400EF2FFFEE33FEED33FD40B830E7C280AAE6
:1002C40074F8CC6480CCC86480C8F58204604FC3E1
:1002D400EB9FF5F0EA9E42F0E99D42F0E89C45F080
:1002E400603C501DE5825FFFE582D313CB5BCBF40A
:1002F4002B5582FB50280ABA002409B90020088033
:100304001DE5825BFBE582D313CF5FCFF4C3132FCC
:100314005582FF50090EBE00050DBD00010CC3EB54
:100324009FF5F0EA9E42F0E99D42F0E89C45F060BA
:0903340007CC4820E701B3EC22DC
:10033D00ED33EC33600A047003BD8004ECB2E7FCCE
:01034D00228D
:10034E0075F020800E75F010800575F0087D007E2A
:10035E00007F003392D530D503120692EC33401055
:10036E00EF33FFEE33FEED33FDEC33FCD5F0ED2233
:0E037E00E5F0247EA2D513CC92E7CDCEFF226F
:10038C00EDD2E7CD33EC3392D524814006E4FFFE69
:10039C00FDFC22FCE4CFCECDCC24E0501174FF80C8
:1003AC00EDC3CC13CCCD13CDCE13CECF13CF047065
:0703BC00F030D5DE020692CD
:10074E00E5082425F8E205082278223009027825EA
:10075E00E475F00112070F0205AF2002EB7F2ED2D7
:10076E00028018EF540F2490D43440D4FF30060B7F
:10077E00EF24BFB41A0050032461FFE5096002158F
:10078E0009050CE50C7002050B30090D7822E47595
:10079E00F00112070FEF0205F5021A707403D20969
:1007AE008003E4C209F508782212071FE4F509F563
:1007BE000BF50CE50960077F2012078980F5750A95
:1007CE00FFC203C202C204C205C207C208C20A1295
:1007DE000757FF700D3009057F0012079AAF0CAE58
:1007EE000B22B4255FC2D5C206120757FF24D0B420
:1007FE000A00501A75F00A780930D50508B6FF01BF
:10080E0006C6A426F620D5047002D20580D924CFC0
:10081E00B41A00EF5004C2E5D206020A86D2038053
:10082E00C6D20280C0D20480BCD2D580BAD2078094
:10083E00B47F201207892004077401B5090040F126
:10084E0012074EFF1207890207C1D20AD2088095FD
:10085E0012074EFB12074EFA12074EF94A4B70065C
:10086E00797D7A0B7BFF20042EE509602A7E008EAF
:10087E00827583001205C860060EEE650A70F0C21E
:10088E00D5EBC0E0EAC0E0E9C0E0EE120AE6D0E047
:10089E00F9D0E0FAD0E0FB1205AFFF60AAEBC0E0A2
:1008AE00EAC0E0E9C0E0120789D0E02401F9D0E007
:1008BE003400FAD0E0FBE50A0460DCD50AD9808763
:1008CE00D20480A2120AC960F7E50A70010412046C
:1008DE000DA90A600DE50A600914F50A120B70EFF6
:1008EE0060F3EA30E702F404C3995077EAF4250A7C
:1008FE000430E701E404F50A800D120AC960C1EA6A
:10090E00050A250A12040DEA7838F230E701E425CB
:10091E000A04D50A0420070114120AE6E4C0E01204
:10092E000B707838E2601320E70714F2120771801B
:10093E002204F2D0E014C0E07F00120771E50A60D5
:10094E0007120768150A800B300703120768D0E0FC
:10095E000207C1D0E00480C5120AC960A0E50A04EE
:10096E0012040D7838EAF2E50A2007026001042429
:0C097E0004120AE674FF04C0E0120B70C3
:10098A00120771E50A2007026003120768D0E0B572
:10099A000AE87F4512077B7838E27F2B30E7047F2D
:1009AA002DF404C0E0120789D0E075F00A84C0F083
:1009BA00120772D0E01207720207C1791080027919
:1009CA0008C208C20A8008D2D5790A8004790AC204
:1009DA00D5E50A047002F50AE4FAFDFEFF12074E95
:1009EA00FC7B0820031312074EFD7B1030020A120B
:1009FA00074EFE12074EFF7B20EC3382D592D5506C
:100A0A0013C3E43002069FFFE49EFEE42003039D25
:100A1A00FDE49CFCE4CBF8C203EC700CCFCECDCC49
:100A2A00E824F8F870F38017C3EF33FFEE33FEEDD6
:100A3A0033FDEC33FCEB33FB994002FB0FD8E9EBB7
:100A4A00300305F8D0E0C448B203C0E00AEC4D4ECA
:100A5A004F78207B0070C2EAB50A0040BCC0E012A1
:100A6A000AE8D0F0D0E0200304C4C0E0C4B203C056
:100A7A00F0120772D0F0D5F0EB0207C1120728086E
:100A8A005E5309C558082F4C082B4209C94F09D192
:100A9A004409D14908444309D75509084609664516
:100AAA0008D2470B9D5008332D08372E085A2B08B9
:100ABA003B230858200B862A07F34800000852E512
:100ACA000AB4FF03750A0612074EFC12074EFD12FE
:100ADA00074EFE12074EFF783102043C790AA2D56E
:100AEA00200514300709B910020404B9080104A248
:100AFA00D52008025001042004689204B509005068
:100B0A0034C0E07F203005197F30A20472087207D2
:100B1A00500F120B3FC204C208C207C20A7F3080BC
:100B2A000F300703E9C0E0120789300703D0E0F964
:100B3A00D0E0B509CC3007177F30B9100C120789FD
:100B4A007F583006077F788003B908031207893077
:100B5A0004057F2D0207897F20200AF87F2B2008B1
:100B6A00F322920480CF7F00B4070050052431F8A5
:100B7A00E2FF22286E756C6C2900D20312074E30F0
:100B8A0003F8C203780930D50108F60207F32D509D
:100B9A0043495812074E2403B405004001E4900B60
:100BAA00989312077A743A12077AD20575090402E1
:020BBA0009C56B
:0D1A2D00ED33EC3360065004EC6480FC22C5
:1003C300E9D2E7C933E833F892D5EDD2E7CD33EC80
:0703D30033FC5002B2D522F9
:1003DA00EC30E7100FBF000C0EBE00080DBD000484
:1003EA000BEB6014A2D5EB13FCED92E7FD2274FF30
:1003FA00FCFDFEFF22E480F8A2D574FF13FC7D8089
:03040A00E480EF9C
:10040D00F920E72824F950037907E4F42402FB18B6
:10041D00DBFDE224FB5014E9600DE4F218E204F276
:0F042D00B40A08E4F2D9F57401F20A22C2D5220A
:10043C00ED33EC3392D5FA602AB4FF33EDC2E77B8F
:10044C00FF60067A047961E4227A04796A20D50483
:10045C007A047965224E614E002B494E46002D4997
:10046C004E4600E47A08F208DAFC7B00740722E8B6
:10047C00C0E0ECC0E0EDC0E0EEC0E0EFC0E0EA753B
:10048C00F010A4CAABF075F04DA42BFBE435F0FCD6
:10049C00EA2410FAEB34C5FBEC34D9FCEDC2E7FFCF
:1004AC0075F056A4F42411C5F0F434C58FF0A42AC9
:1004BC00E5F03BE43CF220E71412056FD0E0FFD0EE
:1004CC00E0FED0E0FDD0E0FC1202278014F4041210
:1004DC00056FD0E0FFD0E0FED0E0FDD0E0FC1201D3
:1004EC001ED0E0F8E2FAEDD2E7CD33EC332482FBF8
:1004FC00E4C3CF33CFCE33CECD33CD33DBF37B0759
:10050C0075F00A846004F2081B0AE5F0F2088FF01B
:10051C00740AA4FFACF08EF0740AA42CFEACF0505C
:10052C00010C8DF0740AA42CFDE435F0F208DBDE2E
:03053C007407221F
:10053F003F8000004120000042C80000447A0000C4
:10054F00461C400047C35000497424004B18968046
:10055F004CBEBC205A0E1BCA6753C21C749DC5AE3D
:10056F00FB60065407601C232312059DEB54386073
:10057F000912058912059812011EECF8EDF9EEFA31
:10058F00EFCB22EB12059880F1543803241C900511
:10059F003FFE93FC0EEE93FD0EEE930ECE93FF22D5
:10157C00020F95E493A3F8E493A34003F68001F2E1
:10158C0008DFF48029E493A3F85407240CC8C33370
:10159C00C4540F4420C8834004F456800146F6DF3F
:1015AC00E4800B0102040810204080901A76E47E3F
:1015BC00019360BCA3FF543F30E509541FFEE49334
:1015CC00A360010ECF54C025E060A840B8E493A3FB
:1015DC00FAE493A3F8E493A3C8C582C8CAC583CA26
:1015EC00F0A3C8C582C8CAC583CADFE9DEE780BEDE
:011A7B00006A
:1005AF00BB010689828A83E0225002E722BBFE024A
:0905BF00E32289828A83E493227D
:1005C800BB010CE58229F582E5833AF583E02250E8
:1005D80006E92582F8E622BBFE06E92582F8E22232
:0D05E800E58229F582E5833AF583E493224C
:1005F500BB010689828A83F0225002F722BBFE01E5
:02060500F322DE
:10060700BC000BBE0029EF8DF084FFADF022E4CCD7
:10061700F875F008EF2FFFEE33FEEC33FCEE9DECA0
:10062700984005FCEE9DFE0FD5F0E9E4CEFD22EDE6
:10063700F8F5F0EE8420D21CFEADF075F008EF2F30
:10064700FFED33FD4007985006D5F0F222C398FD21
:050657000FD5F0EA22BE
:10065C00C2D5EC30E709B2D5E4C39DFDE49CFCEEB9
:10066C0030E715B2D5E4C39FFFE49EFE120607C324
:10067C00E49DFDE49CFC800312060730D507C3E41F
:06068C009FFFE49EFE2228
:0E069200C3E49FFFE49EFEE49DFDE49CFC2279
:0C06A000E6FC08E6FD08E6FE08E6FF2286
:0D06AC00E6FB08E6F908E6FA08E6CBF822BE
:0C06B900ECF608EDF608EEF608EFF6226D
:0C06C500ECF208EDF208EEF208EFF22271
:1006D100D083D082E493F608740193F608740293F0
:0906E100F608740393F674047327
:1006EA00D083D082E493F208740193F208740293DF
:0906FA00F208740393F274047316
:0C070300A42582F582E5F03583F5832201
:10070F00FAE2FB0808E2F925F0F218E2CA3AF222FF
:09071F00EBF208EAF208E9F2220B
:10072800D083D082F8E4937012740193700DA3A360
:1007380093F8740193F5828883E473740293686074
:06074800EFA3A3A380DF74
:00000001FF
